{
  "_format": "hh3-artifact-1",
  "contractName": "AgentNFT",
  "sourceName": "contracts/AgentNFT.sol",
  "abi": [
    {
      "inputs": [
        {
          "internalType": "string",
          "name": "name_",
          "type": "string"
        },
        {
          "internalType": "string",
          "name": "symbol_",
          "type": "string"
        },
        {
          "internalType": "address",
          "name": "_platformToken",
          "type": "address"
        },
        {
          "internalType": "address",
          "name": "_feeRecipient",
          "type": "address"
        },
        {
          "internalType": "uint256",
          "name": "_uploadFee",
          "type": "uint256"
        }
      ],
      "stateMutability": "nonpayable",
      "type": "constructor"
    },
    {
      "inputs": [
        {
          "internalType": "address",
          "name": "sender",
          "type": "address"
        },
        {
          "internalType": "uint256",
          "name": "tokenId",
          "type": "uint256"
        },
        {
          "internalType": "address",
          "name": "owner",
          "type": "address"
        }
      ],
      "name": "ERC721IncorrectOwner",
      "type": "error"
    },
    {
      "inputs": [
        {
          "internalType": "address",
          "name": "operator",
          "type": "address"
        },
        {
          "internalType": "uint256",
          "name": "tokenId",
          "type": "uint256"
        }
      ],
      "name": "ERC721InsufficientApproval",
      "type": "error"
    },
    {
      "inputs": [
        {
          "internalType": "address",
          "name": "approver",
          "type": "address"
        }
      ],
      "name": "ERC721InvalidApprover",
      "type": "error"
    },
    {
      "inputs": [
        {
          "internalType": "address",
          "name": "operator",
          "type": "address"
        }
      ],
      "name": "ERC721InvalidOperator",
      "type": "error"
    },
    {
      "inputs": [
        {
          "internalType": "address",
          "name": "owner",
          "type": "address"
        }
      ],
      "name": "ERC721InvalidOwner",
      "type": "error"
    },
    {
      "inputs": [
        {
          "internalType": "address",
          "name": "receiver",
          "type": "address"
        }
      ],
      "name": "ERC721InvalidReceiver",
      "type": "error"
    },
    {
      "inputs": [
        {
          "internalType": "address",
          "name": "sender",
          "type": "address"
        }
      ],
      "name": "ERC721InvalidSender",
      "type": "error"
    },
    {
      "inputs": [
        {
          "internalType": "uint256",
          "name": "tokenId",
          "type": "uint256"
        }
      ],
      "name": "ERC721NonexistentToken",
      "type": "error"
    },
    {
      "inputs": [
        {
          "internalType": "address",
          "name": "owner",
          "type": "address"
        }
      ],
      "name": "OwnableInvalidOwner",
      "type": "error"
    },
    {
      "inputs": [
        {
          "internalType": "address",
          "name": "account",
          "type": "address"
        }
      ],
      "name": "OwnableUnauthorizedAccount",
      "type": "error"
    },
    {
      "anonymous": false,
      "inputs": [
        {
          "indexed": true,
          "internalType": "uint256",
          "name": "tokenId",
          "type": "uint256"
        },
        {
          "indexed": true,
          "internalType": "address",
          "name": "creator",
          "type": "address"
        },
        {
          "indexed": false,
          "internalType": "string",
          "name": "codeHash",
          "type": "string"
        },
        {
          "indexed": false,
          "internalType": "string",
          "name": "modelHash",
          "type": "string"
        }
      ],
      "name": "AgentCreated",
      "type": "event"
    },
    {
      "anonymous": false,
      "inputs": [
        {
          "indexed": true,
          "internalType": "address",
          "name": "owner",
          "type": "address"
        },
        {
          "indexed": true,
          "internalType": "address",
          "name": "approved",
          "type": "address"
        },
        {
          "indexed": true,
          "internalType": "uint256",
          "name": "tokenId",
          "type": "uint256"
        }
      ],
      "name": "Approval",
      "type": "event"
    },
    {
      "anonymous": false,
      "inputs": [
        {
          "indexed": true,
          "internalType": "address",
          "name": "owner",
          "type": "address"
        },
        {
          "indexed": true,
          "internalType": "address",
          "name": "operator",
          "type": "address"
        },
        {
          "indexed": false,
          "internalType": "bool",
          "name": "approved",
          "type": "bool"
        }
      ],
      "name": "ApprovalForAll",
      "type": "event"
    },
    {
      "anonymous": false,
      "inputs": [
        {
          "indexed": false,
          "internalType": "uint256",
          "name": "_fromTokenId",
          "type": "uint256"
        },
        {
          "indexed": false,
          "internalType": "uint256",
          "name": "_toTokenId",
          "type": "uint256"
        }
      ],
      "name": "BatchMetadataUpdate",
      "type": "event"
    },
    {
      "anonymous": false,
      "inputs": [
        {
          "indexed": false,
          "internalType": "uint256",
          "name": "_tokenId",
          "type": "uint256"
        }
      ],
      "name": "MetadataUpdate",
      "type": "event"
    },
    {
      "anonymous": false,
      "inputs": [
        {
          "indexed": true,
          "internalType": "address",
          "name": "previousOwner",
          "type": "address"
        },
        {
          "indexed": true,
          "internalType": "address",
          "name": "newOwner",
          "type": "address"
        }
      ],
      "name": "OwnershipTransferred",
      "type": "event"
    },
    {
      "anonymous": false,
      "inputs": [
        {
          "indexed": true,
          "internalType": "address",
          "name": "from",
          "type": "address"
        },
        {
          "indexed": true,
          "internalType": "address",
          "name": "to",
          "type": "address"
        },
        {
          "indexed": true,
          "internalType": "uint256",
          "name": "tokenId",
          "type": "uint256"
        }
      ],
      "name": "Transfer",
      "type": "event"
    },
    {
      "inputs": [
        {
          "internalType": "address",
          "name": "to",
          "type": "address"
        },
        {
          "internalType": "string",
          "name": "name_",
          "type": "string"
        },
        {
          "internalType": "string",
          "name": "description_",
          "type": "string"
        },
        {
          "internalType": "string",
          "name": "agentType_",
          "type": "string"
        },
        {
          "internalType": "string",
          "name": "codeHash",
          "type": "string"
        },
        {
          "internalType": "string",
          "name": "modelHash",
          "type": "string"
        },
        {
          "internalType": "uint256",
          "name": "price",
          "type": "uint256"
        },
        {
          "internalType": "string",
          "name": "tokenURI",
          "type": "string"
        }
      ],
      "name": "adminMintAgent",
      "outputs": [
        {
          "internalType": "uint256",
          "name": "",
          "type": "uint256"
        }
      ],
      "stateMutability": "nonpayable",
      "type": "function"
    },
    {
      "inputs": [
        {
          "internalType": "uint256",
          "name": "",
          "type": "uint256"
        }
      ],
      "name": "agents",
      "outputs": [
        {
          "internalType": "string",
          "name": "name",
          "type": "string"
        },
        {
          "internalType": "string",
          "name": "description",
          "type": "string"
        },
        {
          "internalType": "string",
          "name": "agentType",
          "type": "string"
        },
        {
          "internalType": "string",
          "name": "codeHash",
          "type": "string"
        },
        {
          "internalType": "string",
          "name": "modelHash",
          "type": "string"
        },
        {
          "internalType": "address",
          "name": "creator",
          "type": "address"
        },
        {
          "internalType": "uint256",
          "name": "price",
          "type": "uint256"
        },
        {
          "internalType": "uint256",
          "name": "createdAt",
          "type": "uint256"
        }
      ],
      "stateMutability": "view",
      "type": "function"
    },
    {
      "inputs": [
        {
          "internalType": "address",
          "name": "to",
          "type": "address"
        },
        {
          "internalType": "uint256",
          "name": "tokenId",
          "type": "uint256"
        }
      ],
      "name": "approve",
      "outputs": [],
      "stateMutability": "nonpayable",
      "type": "function"
    },
    {
      "inputs": [
        {
          "internalType": "address",
          "name": "owner",
          "type": "address"
        }
      ],
      "name": "balanceOf",
      "outputs": [
        {
          "internalType": "uint256",
          "name": "",
          "type": "uint256"
        }
      ],
      "stateMutability": "view",
      "type": "function"
    },
    {
      "inputs": [
        {
          "internalType": "string",
          "name": "name_",
          "type": "string"
        },
        {
          "internalType": "string",
          "name": "description_",
          "type": "string"
        },
        {
          "internalType": "string",
          "name": "agentType_",
          "type": "string"
        },
        {
          "internalType": "string",
          "name": "codeHash",
          "type": "string"
        },
        {
          "internalType": "string",
          "name": "modelHash",
          "type": "string"
        },
        {
          "internalType": "uint256",
          "name": "price",
          "type": "uint256"
        },
        {
          "internalType": "string",
          "name": "tokenURI",
          "type": "string"
        }
      ],
      "name": "createAgent",
      "outputs": [
        {
          "internalType": "uint256",
          "name": "",
          "type": "uint256"
        }
      ],
      "stateMutability": "nonpayable",
      "type": "function"
    },
    {
      "inputs": [],
      "name": "feeRecipient",
      "outputs": [
        {
          "internalType": "address",
          "name": "",
          "type": "address"
        }
      ],
      "stateMutability": "view",
      "type": "function"
    },
    {
      "inputs": [
        {
          "internalType": "uint256",
          "name": "tokenId",
          "type": "uint256"
        }
      ],
      "name": "getApproved",
      "outputs": [
        {
          "internalType": "address",
          "name": "",
          "type": "address"
        }
      ],
      "stateMutability": "view",
      "type": "function"
    },
    {
      "inputs": [
        {
          "internalType": "address",
          "name": "owner",
          "type": "address"
        },
        {
          "internalType": "address",
          "name": "operator",
          "type": "address"
        }
      ],
      "name": "isApprovedForAll",
      "outputs": [
        {
          "internalType": "bool",
          "name": "",
          "type": "bool"
        }
      ],
      "stateMutability": "view",
      "type": "function"
    },
    {
      "inputs": [],
      "name": "name",
      "outputs": [
        {
          "internalType": "string",
          "name": "",
          "type": "string"
        }
      ],
      "stateMutability": "view",
      "type": "function"
    },
    {
      "inputs": [],
      "name": "owner",
      "outputs": [
        {
          "internalType": "address",
          "name": "",
          "type": "address"
        }
      ],
      "stateMutability": "view",
      "type": "function"
    },
    {
      "inputs": [
        {
          "internalType": "uint256",
          "name": "tokenId",
          "type": "uint256"
        }
      ],
      "name": "ownerOf",
      "outputs": [
        {
          "internalType": "address",
          "name": "",
          "type": "address"
        }
      ],
      "stateMutability": "view",
      "type": "function"
    },
    {
      "inputs": [],
      "name": "platformToken",
      "outputs": [
        {
          "internalType": "contract IERC20",
          "name": "",
          "type": "address"
        }
      ],
      "stateMutability": "view",
      "type": "function"
    },
    {
      "inputs": [],
      "name": "renounceOwnership",
      "outputs": [],
      "stateMutability": "nonpayable",
      "type": "function"
    },
    {
      "inputs": [
        {
          "internalType": "address",
          "name": "from",
          "type": "address"
        },
        {
          "internalType": "address",
          "name": "to",
          "type": "address"
        },
        {
          "internalType": "uint256",
          "name": "tokenId",
          "type": "uint256"
        }
      ],
      "name": "safeTransferFrom",
      "outputs": [],
      "stateMutability": "nonpayable",
      "type": "function"
    },
    {
      "inputs": [
        {
          "internalType": "address",
          "name": "from",
          "type": "address"
        },
        {
          "internalType": "address",
          "name": "to",
          "type": "address"
        },
        {
          "internalType": "uint256",
          "name": "tokenId",
          "type": "uint256"
        },
        {
          "internalType": "bytes",
          "name": "data",
          "type": "bytes"
        }
      ],
      "name": "safeTransferFrom",
      "outputs": [],
      "stateMutability": "nonpayable",
      "type": "function"
    },
    {
      "inputs": [
        {
          "internalType": "address",
          "name": "operator",
          "type": "address"
        },
        {
          "internalType": "bool",
          "name": "approved",
          "type": "bool"
        }
      ],
      "name": "setApprovalForAll",
      "outputs": [],
      "stateMutability": "nonpayable",
      "type": "function"
    },
    {
      "inputs": [
        {
          "internalType": "address",
          "name": "_feeRecipient",
          "type": "address"
        }
      ],
      "name": "setFeeRecipient",
      "outputs": [],
      "stateMutability": "nonpayable",
      "type": "function"
    },
    {
      "inputs": [
        {
          "internalType": "address",
          "name": "_platformToken",
          "type": "address"
        }
      ],
      "name": "setPlatformToken",
      "outputs": [],
      "stateMutability": "nonpayable",
      "type": "function"
    },
    {
      "inputs": [
        {
          "internalType": "uint256",
          "name": "_uploadFee",
          "type": "uint256"
        }
      ],
      "name": "setUploadFee",
      "outputs": [],
      "stateMutability": "nonpayable",
      "type": "function"
    },
    {
      "inputs": [
        {
          "internalType": "bytes4",
          "name": "interfaceId",
          "type": "bytes4"
        }
      ],
      "name": "supportsInterface",
      "outputs": [
        {
          "internalType": "bool",
          "name": "",
          "type": "bool"
        }
      ],
      "stateMutability": "view",
      "type": "function"
    },
    {
      "inputs": [],
      "name": "symbol",
      "outputs": [
        {
          "internalType": "string",
          "name": "",
          "type": "string"
        }
      ],
      "stateMutability": "view",
      "type": "function"
    },
    {
      "inputs": [
        {
          "internalType": "uint256",
          "name": "tokenId",
          "type": "uint256"
        }
      ],
      "name": "tokenURI",
      "outputs": [
        {
          "internalType": "string",
          "name": "",
          "type": "string"
        }
      ],
      "stateMutability": "view",
      "type": "function"
    },
    {
      "inputs": [
        {
          "internalType": "address",
          "name": "from",
          "type": "address"
        },
        {
          "internalType": "address",
          "name": "to",
          "type": "address"
        },
        {
          "internalType": "uint256",
          "name": "tokenId",
          "type": "uint256"
        }
      ],
      "name": "transferFrom",
      "outputs": [],
      "stateMutability": "nonpayable",
      "type": "function"
    },
    {
      "inputs": [
        {
          "internalType": "address",
          "name": "newOwner",
          "type": "address"
        }
      ],
      "name": "transferOwnership",
      "outputs": [],
      "stateMutability": "nonpayable",
      "type": "function"
    },
    {
      "inputs": [],
      "name": "uploadFee",
      "outputs": [
        {
          "internalType": "uint256",
          "name": "",
          "type": "uint256"
        }
      ],
      "stateMutability": "view",
      "type": "function"
    }
  ],
  "bytecode": "0x608060405234801561000f575f5ffd5b506040516121e13803806121e183398101604081905261002e916101c7565b3385855f61003c83826102d9565b50600161004982826102d9565b5050506001600160a01b03811661007957604051631e4fbdf760e01b81525f600482015260240160405180910390fd5b610082816100be565b50600980546001600160a01b039485166001600160a01b031991821617909155600a805493909416921691909117909155600b55506103939050565b600780546001600160a01b038381166001600160a01b0319831681179093556040519116919082907f8be0079c531659141344cd1fd0a4f28419497f9722a3daafe3b4186f6b6457e0905f90a35050565b634e487b7160e01b5f52604160045260245ffd5b5f82601f830112610132575f5ffd5b81516001600160401b0381111561014b5761014b61010f565b604051601f8201601f19908116603f011681016001600160401b03811182821017156101795761017961010f565b604052818152838201602001851015610190575f5ffd5b8160208501602083015e5f918101602001919091529392505050565b80516001600160a01b03811681146101c2575f5ffd5b919050565b5f5f5f5f5f60a086880312156101db575f5ffd5b85516001600160401b038111156101f0575f5ffd5b6101fc88828901610123565b602088015190965090506001600160401b03811115610219575f5ffd5b61022588828901610123565b945050610234604087016101ac565b9250610242606087016101ac565b9150608086015190509295509295909350565b600181811c9082168061026957607f821691505b60208210810361028757634e487b7160e01b5f52602260045260245ffd5b50919050565b601f8211156102d457805f5260205f20601f840160051c810160208510156102b25750805b601f840160051c820191505b818110156102d1575f81556001016102be565b50505b505050565b81516001600160401b038111156102f2576102f261010f565b610306816103008454610255565b8461028d565b6020601f821160018114610338575f83156103215750848201515b5f19600385901b1c1916600184901b1784556102d1565b5f84815260208120601f198516915b828110156103675787850151825560209485019460019092019101610347565b508482101561038457868401515f19600387901b60f8161c191681555b50505050600190811b01905550565b611e41806103a05f395ff3fe608060405234801561000f575f5ffd5b506004361061016d575f3560e01c8063715018a6116100d9578063b88d4fde11610093578063e74b981b1161006e578063e74b981b1461033b578063e985e9c51461034e578063f2fde38b14610361578063ffd0289114610374575f5ffd5b8063b88d4fde14610302578063c87b56dd14610315578063d1b812cd14610328575f5ffd5b8063715018a6146102a85780638da5cb5b146102b057806395d89b41146102c1578063a22cb465146102c9578063abb54c26146102dc578063b1a7910a146102ef575f5ffd5b806323b872dd1161012a57806323b872dd1461022257806342842e0e146102355780634690484014610248578063513856c81461025b5780636352211e1461028257806370a0823114610295575f5ffd5b806301ffc9a7146101715780630255a03b1461019957806306fdde03146101ae578063081812fc146101c3578063095ea7b3146101ee5780630f623ca014610201575b5f5ffd5b61018461017f366004611692565b61037d565b60405190151581526020015b60405180910390f35b6101ac6101a73660046116c8565b6103a7565b005b6101b66103d1565b604051610190919061170f565b6101d66101d1366004611721565b610460565b6040516001600160a01b039091168152602001610190565b6101ac6101fc366004611738565b610487565b61021461020f366004611807565b610496565b604051908152602001610190565b6101ac610230366004611917565b61071b565b6101ac610243366004611917565b6107a4565b600a546101d6906001600160a01b031681565b61026e610269366004611721565b6107c3565b604051610190989796959493929190611951565b6101d6610290366004611721565b610aac565b6102146102a33660046116c8565b610ab6565b6101ac610afb565b6007546001600160a01b03166101d6565b6101b6610b0e565b6101ac6102d73660046119ea565b610b1d565b6102146102ea366004611a1f565b610b28565b6101ac6102fd366004611721565b610c9f565b6101ac610310366004611b40565b610cac565b6101b6610323366004611721565b610cc4565b6009546101d6906001600160a01b031681565b6101ac6103493660046116c8565b610dcf565b61018461035c366004611bb6565b610df9565b6101ac61036f3660046116c8565b610e26565b610214600b5481565b5f6001600160e01b03198216632483248360e11b14806103a157506103a182610e63565b92915050565b6103af610eb2565b600980546001600160a01b0319166001600160a01b0392909216919091179055565b60605f80546103df90611be7565b80601f016020809104026020016040519081016040528092919081815260200182805461040b90611be7565b80156104565780601f1061042d57610100808354040283529160200191610456565b820191905f5260205f20905b81548152906001019060200180831161043957829003601f168201915b5050505050905090565b5f61046a82610edf565b505f828152600460205260409020546001600160a01b03166103a1565b610492828233610f17565b5050565b600b545f90156105b6576009546001600160a01b03166104f65760405162461bcd60e51b8152602060048201526016602482015275141b185d199bdc9b481d1bdad95b881b9bdd081cd95d60521b60448201526064015b60405180910390fd5b600954600a54600b546040516323b872dd60e01b81523360048201526001600160a01b03928316602482015260448101919091529116906323b872dd906064016020604051808303815f875af1158015610552573d5f5f3e3d5ffd5b505050506040513d601f19601f820116820180604052508101906105769190611c1f565b6105b65760405162461bcd60e51b8152602060048201526011602482015270155c1b1bd859081999594819985a5b1959607a1b60448201526064016104ed565b60088054905f6105c583611c3a565b90915550506008546105d73382610f24565b8251156105e8576105e88184610f85565b60408051610100810182528a815260208082018b90528183018a905260608201899052608082018890523360a083015260c082018790524260e08301525f848152600c90915291909120815181906106409082611ca2565b50602082015160018201906106559082611ca2565b506040820151600282019061066a9082611ca2565b506060820151600382019061067f9082611ca2565b50608082015160048201906106949082611ca2565b5060a08201516005820180546001600160a01b0319166001600160a01b0390921691909117905560c0820151600682015560e090910151600790910155604051339082907f4be0e81e1f53161f064f9d58c448e65a9d09248890c014957ae1813ab79eafe590610707908a908a90611d5c565b60405180910390a398975050505050505050565b6001600160a01b03821661074457604051633250574960e11b81525f60048201526024016104ed565b5f610750838333610fd4565b9050836001600160a01b0316816001600160a01b03161461079e576040516364283d7b60e01b81526001600160a01b03808616600483015260248201849052821660448201526064016104ed565b50505050565b6107be83838360405180602001604052805f815250610cac565b505050565b600c6020525f90815260409020805481906107dd90611be7565b80601f016020809104026020016040519081016040528092919081815260200182805461080990611be7565b80156108545780601f1061082b57610100808354040283529160200191610854565b820191905f5260205f20905b81548152906001019060200180831161083757829003601f168201915b50505050509080600101805461086990611be7565b80601f016020809104026020016040519081016040528092919081815260200182805461089590611be7565b80156108e05780601f106108b7576101008083540402835291602001916108e0565b820191905f5260205f20905b8154815290600101906020018083116108c357829003601f168201915b5050505050908060020180546108f590611be7565b80601f016020809104026020016040519081016040528092919081815260200182805461092190611be7565b801561096c5780601f106109435761010080835404028352916020019161096c565b820191905f5260205f20905b81548152906001019060200180831161094f57829003601f168201915b50505050509080600301805461098190611be7565b80601f01602080910402602001604051908101604052809291908181526020018280546109ad90611be7565b80156109f85780601f106109cf576101008083540402835291602001916109f8565b820191905f5260205f20905b8154815290600101906020018083116109db57829003601f168201915b505050505090806004018054610a0d90611be7565b80601f0160208091040260200160405190810160405280929190818152602001828054610a3990611be7565b8015610a845780601f10610a5b57610100808354040283529160200191610a84565b820191905f5260205f20905b815481529060010190602001808311610a6757829003601f168201915b505050506005830154600684015460079094015492936001600160a01b039091169290915088565b5f6103a182610edf565b5f6001600160a01b038216610ae0576040516322718ad960e21b81525f60048201526024016104ed565b506001600160a01b03165f9081526003602052604090205490565b610b03610eb2565b610b0c5f6110c6565b565b6060600180546103df90611be7565b610492338383611117565b5f610b31610eb2565b60088054905f610b4083611c3a565b9091555050600854610b528a82610f24565b825115610b6357610b638184610f85565b60408051610100810182528a815260208082018b90528183018a905260608201899052608082018890526001600160a01b038d1660a083015260c082018790524260e08301525f848152600c9091529190912081518190610bc49082611ca2565b5060208201516001820190610bd99082611ca2565b5060408201516002820190610bee9082611ca2565b5060608201516003820190610c039082611ca2565b5060808201516004820190610c189082611ca2565b5060a08201516005820180546001600160a01b0319166001600160a01b0392831617905560c0830151600683015560e090920151600790910155604051908b169082907f4be0e81e1f53161f064f9d58c448e65a9d09248890c014957ae1813ab79eafe590610c8a908a908a90611d5c565b60405180910390a39998505050505050505050565b610ca7610eb2565b600b55565b610cb784848461071b565b61079e33858585856111b5565b6060610ccf82610edf565b505f8281526006602052604081208054610ce890611be7565b80601f0160208091040260200160405190810160405280929190818152602001828054610d1490611be7565b8015610d5f5780601f10610d3657610100808354040283529160200191610d5f565b820191905f5260205f20905b815481529060010190602001808311610d4257829003601f168201915b505050505090505f610d7b60408051602081019091525f815290565b905080515f03610d8c575092915050565b815115610dbe578082604051602001610da6929190611da0565b60405160208183030381529060405292505050919050565b610dc7846112dd565b949350505050565b610dd7610eb2565b600a80546001600160a01b0319166001600160a01b0392909216919091179055565b6001600160a01b039182165f90815260056020908152604080832093909416825291909152205460ff1690565b610e2e610eb2565b6001600160a01b038116610e5757604051631e4fbdf760e01b81525f60048201526024016104ed565b610e60816110c6565b50565b5f6001600160e01b031982166380ac58cd60e01b1480610e9357506001600160e01b03198216635b5e139f60e01b145b806103a157506301ffc9a760e01b6001600160e01b03198316146103a1565b6007546001600160a01b03163314610b0c5760405163118cdaa760e01b81523360048201526024016104ed565b5f818152600260205260408120546001600160a01b0316806103a157604051637e27328960e01b8152600481018490526024016104ed565b6107be838383600161134e565b6001600160a01b038216610f4d57604051633250574960e11b81525f60048201526024016104ed565b5f610f5983835f610fd4565b90506001600160a01b038116156107be576040516339e3563760e11b81525f60048201526024016104ed565b5f828152600660205260409020610f9c8282611ca2565b506040518281527ff8e1a15aba9398e019f0b49df1a4fde98ee17ae345cb5f6b5e2c27f5033e8ce79060200160405180910390a15050565b5f828152600260205260408120546001600160a01b039081169083161561100057611000818486611452565b6001600160a01b0381161561103a5761101b5f855f5f61134e565b6001600160a01b0381165f90815260036020526040902080545f190190555b6001600160a01b03851615611068576001600160a01b0385165f908152600360205260409020805460010190555b5f8481526002602052604080822080546001600160a01b0319166001600160a01b0389811691821790925591518793918516917fddf252ad1be2c89b69c2b068fc378daa952ba7f163c4a11628f55a4df523b3ef91a4949350505050565b600780546001600160a01b038381166001600160a01b0319831681179093556040519116919082907f8be0079c531659141344cd1fd0a4f28419497f9722a3daafe3b4186f6b6457e0905f90a35050565b6001600160a01b03821661114957604051630b61174360e31b81526001600160a01b03831660048201526024016104ed565b6001600160a01b038381165f81815260056020908152604080832094871680845294825291829020805460ff191686151590811790915591519182527f17307eab39ab6107e8899845ad3d59bd9653f200f220920489ca2b5937696c31910160405180910390a3505050565b6001600160a01b0383163b156112d657604051630a85bd0160e11b81526001600160a01b0384169063150b7a02906111f7908890889087908790600401611db4565b6020604051808303815f875af1925050508015611231575060408051601f3d908101601f1916820190925261122e91810190611df0565b60015b611298573d80801561125e576040519150601f19603f3d011682016040523d82523d5f602084013e611263565b606091505b5080515f0361129057604051633250574960e11b81526001600160a01b03851660048201526024016104ed565b805160208201fd5b6001600160e01b03198116630a85bd0160e11b146112d457604051633250574960e11b81526001600160a01b03851660048201526024016104ed565b505b5050505050565b60606112e882610edf565b505f6112fe60408051602081019091525f815290565b90505f81511161131c5760405180602001604052805f815250611347565b80611326846114b6565b604051602001611337929190611da0565b6040516020818303038152906040525b9392505050565b808061136257506001600160a01b03821615155b15611423575f61137184610edf565b90506001600160a01b0383161580159061139d5750826001600160a01b0316816001600160a01b031614155b80156113b057506113ae8184610df9565b155b156113d95760405163a9fbf51f60e01b81526001600160a01b03841660048201526024016104ed565b81156114215783856001600160a01b0316826001600160a01b03167f8c5be1e5ebec7d5bd14f71427d1e84f3dd0314c0f7b2291e5b200ac8c7c3b92560405160405180910390a45b505b50505f90815260046020526040902080546001600160a01b0319166001600160a01b0392909216919091179055565b61145d838383611545565b6107be576001600160a01b03831661148b57604051637e27328960e01b8152600481018290526024016104ed565b60405163177e802f60e01b81526001600160a01b0383166004820152602481018290526044016104ed565b60605f6114c2836115a6565b60010190505f816001600160401b038111156114e0576114e0611760565b6040519080825280601f01601f19166020018201604052801561150a576020820181803683370190505b5090508181016020015b5f19016f181899199a1a9b1b9c1cb0b131b232b360811b600a86061a8153600a850494508461151457509392505050565b5f6001600160a01b03831615801590610dc75750826001600160a01b0316846001600160a01b0316148061157e575061157e8484610df9565b80610dc75750505f908152600460205260409020546001600160a01b03908116911614919050565b5f8072184f03e93ff9f4daa797ed6e38ed64bf6a1f0160401b83106115e45772184f03e93ff9f4daa797ed6e38ed64bf6a1f0160401b830492506040015b6d04ee2d6d415b85acef81000000008310611610576d04ee2d6d415b85acef8100000000830492506020015b662386f26fc10000831061162e57662386f26fc10000830492506010015b6305f5e1008310611646576305f5e100830492506008015b612710831061165a57612710830492506004015b6064831061166c576064830492506002015b600a83106103a15760010192915050565b6001600160e01b031981168114610e60575f5ffd5b5f602082840312156116a2575f5ffd5b81356113478161167d565b80356001600160a01b03811681146116c3575f5ffd5b919050565b5f602082840312156116d8575f5ffd5b611347826116ad565b5f81518084528060208401602086015e5f602082860101526020601f19601f83011685010191505092915050565b602081525f61134760208301846116e1565b5f60208284031215611731575f5ffd5b5035919050565b5f5f60408385031215611749575f5ffd5b611752836116ad565b946020939093013593505050565b634e487b7160e01b5f52604160045260245ffd5b5f5f6001600160401b0384111561178d5761178d611760565b50604051601f19601f85018116603f011681018181106001600160401b03821117156117bb576117bb611760565b6040528381529050808284018510156117d2575f5ffd5b838360208301375f60208583010152509392505050565b5f82601f8301126117f8575f5ffd5b61134783833560208501611774565b5f5f5f5f5f5f5f60e0888a03121561181d575f5ffd5b87356001600160401b03811115611832575f5ffd5b61183e8a828b016117e9565b97505060208801356001600160401b03811115611859575f5ffd5b6118658a828b016117e9565b96505060408801356001600160401b03811115611880575f5ffd5b61188c8a828b016117e9565b95505060608801356001600160401b038111156118a7575f5ffd5b6118b38a828b016117e9565b94505060808801356001600160401b038111156118ce575f5ffd5b6118da8a828b016117e9565b93505060a0880135915060c08801356001600160401b038111156118fc575f5ffd5b6119088a828b016117e9565b91505092959891949750929550565b5f5f5f60608486031215611929575f5ffd5b611932846116ad565b9250611940602085016116ad565b929592945050506040919091013590565b61010081525f61196561010083018b6116e1565b8281036020840152611977818b6116e1565b9050828103604084015261198b818a6116e1565b9050828103606084015261199f81896116e1565b905082810360808401526119b381886116e1565b6001600160a01b039690961660a0840152505060c081019290925260e09091015295945050505050565b8015158114610e60575f5ffd5b5f5f604083850312156119fb575f5ffd5b611a04836116ad565b91506020830135611a14816119dd565b809150509250929050565b5f5f5f5f5f5f5f5f610100898b031215611a37575f5ffd5b611a40896116ad565b975060208901356001600160401b03811115611a5a575f5ffd5b611a668b828c016117e9565b97505060408901356001600160401b03811115611a81575f5ffd5b611a8d8b828c016117e9565b96505060608901356001600160401b03811115611aa8575f5ffd5b611ab48b828c016117e9565b95505060808901356001600160401b03811115611acf575f5ffd5b611adb8b828c016117e9565b94505060a08901356001600160401b03811115611af6575f5ffd5b611b028b828c016117e9565b93505060c0890135915060e08901356001600160401b03811115611b24575f5ffd5b611b308b828c016117e9565b9150509295985092959890939650565b5f5f5f5f60808587031215611b53575f5ffd5b611b5c856116ad565b9350611b6a602086016116ad565b92506040850135915060608501356001600160401b03811115611b8b575f5ffd5b8501601f81018713611b9b575f5ffd5b611baa87823560208401611774565b91505092959194509250565b5f5f60408385031215611bc7575f5ffd5b611bd0836116ad565b9150611bde602084016116ad565b90509250929050565b600181811c90821680611bfb57607f821691505b602082108103611c1957634e487b7160e01b5f52602260045260245ffd5b50919050565b5f60208284031215611c2f575f5ffd5b8151611347816119dd565b5f60018201611c5757634e487b7160e01b5f52601160045260245ffd5b5060010190565b601f8211156107be57805f5260205f20601f840160051c81016020851015611c835750805b601f840160051c820191505b818110156112d6575f8155600101611c8f565b81516001600160401b03811115611cbb57611cbb611760565b611ccf81611cc98454611be7565b84611c5e565b6020601f821160018114611d01575f8315611cea5750848201515b5f19600385901b1c1916600184901b1784556112d6565b5f84815260208120601f198516915b82811015611d305787850151825560209485019460019092019101611d10565b5084821015611d4d57868401515f19600387901b60f8161c191681555b50505050600190811b01905550565b604081525f611d6e60408301856116e1565b8281036020840152611d8081856116e1565b95945050505050565b5f81518060208401855e5f93019283525090919050565b5f610dc7611dae8386611d89565b84611d89565b6001600160a01b03858116825284166020820152604081018390526080606082018190525f90611de6908301846116e1565b9695505050505050565b5f60208284031215611e00575f5ffd5b81516113478161167d56fea26469706673582212209d91cc6234179bbd5a550b9153b690adaf8066ef0df8adb4824f3e95e31a86ca64736f6c634300081c0033",
  "linkReferences": {},
  "deployedLinkReferences": {},
  "immutableReferences": {},
  "inputSourceName": "project/contracts/AgentNFT.sol",
  "buildInfoId": "solc-0_8_28-fbad1722f8fbb9e41195b2e3e6fdaea9183e123f"
}