{
  "_format": "hh-sol-artifact-1",
  "contractName": "GameItemNFT",
  "sourceName": "contracts/GameItemNFT.sol",
  "abi": [
    {
      "inputs": [],
      "stateMutability": "nonpayable",
      "type": "constructor"
    },
    {
      "anonymous": false,
      "inputs": [
        {
          "indexed": true,
          "internalType": "address",
          "name": "owner",
          "type": "address"
        },
        {
          "indexed": true,
          "internalType": "address",
          "name": "approved",
          "type": "address"
        },
        {
          "indexed": true,
          "internalType": "uint256",
          "name": "tokenId",
          "type": "uint256"
        }
      ],
      "name": "Approval",
      "type": "event"
    },
    {
      "anonymous": false,
      "inputs": [
        {
          "indexed": true,
          "internalType": "address",
          "name": "owner",
          "type": "address"
        },
        {
          "indexed": true,
          "internalType": "address",
          "name": "operator",
          "type": "address"
        },
        {
          "indexed": false,
          "internalType": "bool",
          "name": "approved",
          "type": "bool"
        }
      ],
      "name": "ApprovalForAll",
      "type": "event"
    },
    {
      "anonymous": false,
      "inputs": [
        {
          "indexed": false,
          "internalType": "uint256",
          "name": "_fromTokenId",
          "type": "uint256"
        },
        {
          "indexed": false,
          "internalType": "uint256",
          "name": "_toTokenId",
          "type": "uint256"
        }
      ],
      "name": "BatchMetadataUpdate",
      "type": "event"
    },
    {
      "anonymous": false,
      "inputs": [
        {
          "indexed": false,
          "internalType": "string",
          "name": "category1",
          "type": "string"
        },
        {
          "indexed": false,
          "internalType": "string",
          "name": "category2",
          "type": "string"
        },
        {
          "indexed": false,
          "internalType": "bool",
          "name": "compatible",
          "type": "bool"
        }
      ],
      "name": "CategoryCompatibilitySet",
      "type": "event"
    },
    {
      "anonymous": false,
      "inputs": [
        {
          "indexed": true,
          "internalType": "uint256",
          "name": "tokenId",
          "type": "uint256"
        },
        {
          "indexed": true,
          "internalType": "address",
          "name": "creator",
          "type": "address"
        },
        {
          "indexed": true,
          "internalType": "uint256",
          "name": "gameId",
          "type": "uint256"
        },
        {
          "indexed": false,
          "internalType": "string",
          "name": "name",
          "type": "string"
        },
        {
          "indexed": false,
          "internalType": "string",
          "name": "gameCategory",
          "type": "string"
        },
        {
          "indexed": false,
          "internalType": "enum GameItemNFT.Rarity",
          "name": "rarity",
          "type": "uint8"
        }
      ],
      "name": "GameItemCreated",
      "type": "event"
    },
    {
      "anonymous": false,
      "inputs": [
        {
          "indexed": true,
          "internalType": "uint256",
          "name": "tokenId",
          "type": "uint256"
        },
        {
          "indexed": true,
          "internalType": "address",
          "name": "from",
          "type": "address"
        },
        {
          "indexed": true,
          "internalType": "address",
          "name": "to",
          "type": "address"
        },
        {
          "indexed": false,
          "internalType": "uint256",
          "name": "gameId",
          "type": "uint256"
        }
      ],
      "name": "ItemTransferred",
      "type": "event"
    },
    {
      "anonymous": false,
      "inputs": [
        {
          "indexed": true,
          "internalType": "uint256",
          "name": "tokenId",
          "type": "uint256"
        },
        {
          "indexed": false,
          "internalType": "uint256",
          "name": "oldLevel",
          "type": "uint256"
        },
        {
          "indexed": false,
          "internalType": "uint256",
          "name": "newLevel",
          "type": "uint256"
        }
      ],
      "name": "ItemUpgraded",
      "type": "event"
    },
    {
      "anonymous": false,
      "inputs": [
        {
          "indexed": true,
          "internalType": "uint256",
          "name": "tokenId",
          "type": "uint256"
        },
        {
          "indexed": true,
          "internalType": "address",
          "name": "user",
          "type": "address"
        },
        {
          "indexed": true,
          "internalType": "uint256",
          "name": "gameId",
          "type": "uint256"
        }
      ],
      "name": "ItemUsed",
      "type": "event"
    },
    {
      "anonymous": false,
      "inputs": [
        {
          "indexed": false,
          "internalType": "uint256",
          "name": "_tokenId",
          "type": "uint256"
        }
      ],
      "name": "MetadataUpdate",
      "type": "event"
    },
    {
      "anonymous": false,
      "inputs": [
        {
          "indexed": true,
          "internalType": "address",
          "name": "previousOwner",
          "type": "address"
        },
        {
          "indexed": true,
          "internalType": "address",
          "name": "newOwner",
          "type": "address"
        }
      ],
      "name": "OwnershipTransferred",
      "type": "event"
    },
    {
      "anonymous": false,
      "inputs": [
        {
          "indexed": false,
          "internalType": "address",
          "name": "account",
          "type": "address"
        }
      ],
      "name": "Paused",
      "type": "event"
    },
    {
      "anonymous": false,
      "inputs": [
        {
          "indexed": true,
          "internalType": "address",
          "name": "from",
          "type": "address"
        },
        {
          "indexed": true,
          "internalType": "address",
          "name": "to",
          "type": "address"
        },
        {
          "indexed": true,
          "internalType": "uint256",
          "name": "tokenId",
          "type": "uint256"
        }
      ],
      "name": "Transfer",
      "type": "event"
    },
    {
      "anonymous": false,
      "inputs": [
        {
          "indexed": false,
          "internalType": "address",
          "name": "account",
          "type": "address"
        }
      ],
      "name": "Unpaused",
      "type": "event"
    },
    {
      "inputs": [
        {
          "internalType": "address",
          "name": "to",
          "type": "address"
        },
        {
          "internalType": "uint256",
          "name": "tokenId",
          "type": "uint256"
        }
      ],
      "name": "approve",
      "outputs": [],
      "stateMutability": "nonpayable",
      "type": "function"
    },
    {
      "inputs": [
        {
          "internalType": "address",
          "name": "",
          "type": "address"
        }
      ],
      "name": "authorizedMinters",
      "outputs": [
        {
          "internalType": "bool",
          "name": "",
          "type": "bool"
        }
      ],
      "stateMutability": "view",
      "type": "function"
    },
    {
      "inputs": [
        {
          "internalType": "address",
          "name": "owner",
          "type": "address"
        }
      ],
      "name": "balanceOf",
      "outputs": [
        {
          "internalType": "uint256",
          "name": "",
          "type": "uint256"
        }
      ],
      "stateMutability": "view",
      "type": "function"
    },
    {
      "inputs": [
        {
          "internalType": "uint256",
          "name": "tokenId",
          "type": "uint256"
        },
        {
          "internalType": "uint256",
          "name": "gameId",
          "type": "uint256"
        }
      ],
      "name": "canUseInGame",
      "outputs": [
        {
          "internalType": "bool",
          "name": "",
          "type": "bool"
        }
      ],
      "stateMutability": "view",
      "type": "function"
    },
    {
      "inputs": [
        {
          "internalType": "string",
          "name": "",
          "type": "string"
        },
        {
          "internalType": "string",
          "name": "",
          "type": "string"
        }
      ],
      "name": "categoryCompatibility",
      "outputs": [
        {
          "internalType": "bool",
          "name": "",
          "type": "bool"
        }
      ],
      "stateMutability": "view",
      "type": "function"
    },
    {
      "inputs": [
        {
          "components": [
            {
              "internalType": "address",
              "name": "to",
              "type": "address"
            },
            {
              "internalType": "string",
              "name": "name",
              "type": "string"
            },
            {
              "internalType": "string",
              "name": "description",
              "type": "string"
            },
            {
              "internalType": "string",
              "name": "itemType",
              "type": "string"
            },
            {
              "internalType": "string",
              "name": "gameCategory",
              "type": "string"
            },
            {
              "internalType": "uint256",
              "name": "gameId",
              "type": "uint256"
            },
            {
              "internalType": "enum GameItemNFT.Rarity",
              "name": "rarity",
              "type": "uint8"
            },
            {
              "internalType": "string",
              "name": "attributes",
              "type": "string"
            },
            {
              "internalType": "bool",
              "name": "isCrossGame",
              "type": "bool"
            },
            {
              "internalType": "uint256",
              "name": "durability",
              "type": "uint256"
            },
            {
              "internalType": "uint256",
              "name": "level",
              "type": "uint256"
            },
            {
              "internalType": "string",
              "name": "metadataURI",
              "type": "string"
            }
          ],
          "internalType": "struct GameItemNFT.CreateItemParams",
          "name": "params",
          "type": "tuple"
        }
      ],
      "name": "createGameItem",
      "outputs": [
        {
          "internalType": "uint256",
          "name": "",
          "type": "uint256"
        }
      ],
      "stateMutability": "nonpayable",
      "type": "function"
    },
    {
      "inputs": [
        {
          "internalType": "uint256",
          "name": "",
          "type": "uint256"
        }
      ],
      "name": "gameItems",
      "outputs": [
        {
          "internalType": "string",
          "name": "name",
          "type": "string"
        },
        {
          "internalType": "string",
          "name": "description",
          "type": "string"
        },
        {
          "internalType": "string",
          "name": "itemType",
          "type": "string"
        },
        {
          "internalType": "string",
          "name": "gameCategory",
          "type": "string"
        },
        {
          "internalType": "uint256",
          "name": "gameId",
          "type": "uint256"
        },
        {
          "internalType": "enum GameItemNFT.Rarity",
          "name": "rarity",
          "type": "uint8"
        },
        {
          "internalType": "string",
          "name": "attributes",
          "type": "string"
        },
        {
          "internalType": "address",
          "name": "creator",
          "type": "address"
        },
        {
          "internalType": "uint256",
          "name": "createdAt",
          "type": "uint256"
        },
        {
          "internalType": "bool",
          "name": "isTransferable",
          "type": "bool"
        },
        {
          "internalType": "bool",
          "name": "isCrossGame",
          "type": "bool"
        },
        {
          "internalType": "uint256",
          "name": "durability",
          "type": "uint256"
        },
        {
          "internalType": "uint256",
          "name": "level",
          "type": "uint256"
        }
      ],
      "stateMutability": "view",
      "type": "function"
    },
    {
      "inputs": [
        {
          "internalType": "uint256",
          "name": "tokenId",
          "type": "uint256"
        }
      ],
      "name": "getApproved",
      "outputs": [
        {
          "internalType": "address",
          "name": "",
          "type": "address"
        }
      ],
      "stateMutability": "view",
      "type": "function"
    },
    {
      "inputs": [
        {
          "internalType": "uint256",
          "name": "tokenId",
          "type": "uint256"
        }
      ],
      "name": "getGameItem",
      "outputs": [
        {
          "components": [
            {
              "internalType": "string",
              "name": "name",
              "type": "string"
            },
            {
              "internalType": "string",
              "name": "description",
              "type": "string"
            },
            {
              "internalType": "string",
              "name": "itemType",
              "type": "string"
            },
            {
              "internalType": "string",
              "name": "gameCategory",
              "type": "string"
            },
            {
              "internalType": "uint256",
              "name": "gameId",
              "type": "uint256"
            },
            {
              "internalType": "enum GameItemNFT.Rarity",
              "name": "rarity",
              "type": "uint8"
            },
            {
              "internalType": "string",
              "name": "attributes",
              "type": "string"
            },
            {
              "internalType": "address",
              "name": "creator",
              "type": "address"
            },
            {
              "internalType": "uint256",
              "name": "createdAt",
              "type": "uint256"
            },
            {
              "internalType": "bool",
              "name": "isTransferable",
              "type": "bool"
            },
            {
              "internalType": "bool",
              "name": "isCrossGame",
              "type": "bool"
            },
            {
              "internalType": "uint256",
              "name": "durability",
              "type": "uint256"
            },
            {
              "internalType": "uint256",
              "name": "level",
              "type": "uint256"
            }
          ],
          "internalType": "struct GameItemNFT.GameItem",
          "name": "",
          "type": "tuple"
        }
      ],
      "stateMutability": "view",
      "type": "function"
    },
    {
      "inputs": [
        {
          "internalType": "uint256",
          "name": "tokenId",
          "type": "uint256"
        },
        {
          "internalType": "address",
          "name": "user",
          "type": "address"
        }
      ],
      "name": "getItemUsage",
      "outputs": [
        {
          "internalType": "uint256",
          "name": "",
          "type": "uint256"
        }
      ],
      "stateMutability": "view",
      "type": "function"
    },
    {
      "inputs": [
        {
          "internalType": "string",
          "name": "gameCategory",
          "type": "string"
        }
      ],
      "name": "getItemsByGameCategory",
      "outputs": [
        {
          "internalType": "uint256[]",
          "name": "",
          "type": "uint256[]"
        }
      ],
      "stateMutability": "view",
      "type": "function"
    },
    {
      "inputs": [
        {
          "internalType": "enum GameItemNFT.Rarity",
          "name": "rarity",
          "type": "uint8"
        }
      ],
      "name": "getItemsByRarity",
      "outputs": [
        {
          "internalType": "uint256[]",
          "name": "",
          "type": "uint256[]"
        }
      ],
      "stateMutability": "view",
      "type": "function"
    },
    {
      "inputs": [
        {
          "internalType": "string",
          "name": "itemType",
          "type": "string"
        }
      ],
      "name": "getItemsByType",
      "outputs": [
        {
          "internalType": "uint256[]",
          "name": "",
          "type": "uint256[]"
        }
      ],
      "stateMutability": "view",
      "type": "function"
    },
    {
      "inputs": [
        {
          "internalType": "address",
          "name": "user",
          "type": "address"
        }
      ],
      "name": "getUserItems",
      "outputs": [
        {
          "internalType": "uint256[]",
          "name": "",
          "type": "uint256[]"
        }
      ],
      "stateMutability": "view",
      "type": "function"
    },
    {
      "inputs": [
        {
          "internalType": "address",
          "name": "owner",
          "type": "address"
        },
        {
          "internalType": "address",
          "name": "operator",
          "type": "address"
        }
      ],
      "name": "isApprovedForAll",
      "outputs": [
        {
          "internalType": "bool",
          "name": "",
          "type": "bool"
        }
      ],
      "stateMutability": "view",
      "type": "function"
    },
    {
      "inputs": [
        {
          "internalType": "uint256",
          "name": "",
          "type": "uint256"
        },
        {
          "internalType": "address",
          "name": "",
          "type": "address"
        }
      ],
      "name": "itemUsage",
      "outputs": [
        {
          "internalType": "uint256",
          "name": "",
          "type": "uint256"
        }
      ],
      "stateMutability": "view",
      "type": "function"
    },
    {
      "inputs": [
        {
          "internalType": "uint256",
          "name": "",
          "type": "uint256"
        },
        {
          "internalType": "uint256",
          "name": "",
          "type": "uint256"
        }
      ],
      "name": "itemsByGame",
      "outputs": [
        {
          "internalType": "uint256",
          "name": "",
          "type": "uint256"
        }
      ],
      "stateMutability": "view",
      "type": "function"
    },
    {
      "inputs": [
        {
          "internalType": "string",
          "name": "",
          "type": "string"
        },
        {
          "internalType": "uint256",
          "name": "",
          "type": "uint256"
        }
      ],
      "name": "itemsByGameCategory",
      "outputs": [
        {
          "internalType": "uint256",
          "name": "",
          "type": "uint256"
        }
      ],
      "stateMutability": "view",
      "type": "function"
    },
    {
      "inputs": [
        {
          "internalType": "enum GameItemNFT.Rarity",
          "name": "",
          "type": "uint8"
        },
        {
          "internalType": "uint256",
          "name": "",
          "type": "uint256"
        }
      ],
      "name": "itemsByRarity",
      "outputs": [
        {
          "internalType": "uint256",
          "name": "",
          "type": "uint256"
        }
      ],
      "stateMutability": "view",
      "type": "function"
    },
    {
      "inputs": [
        {
          "internalType": "string",
          "name": "",
          "type": "string"
        },
        {
          "internalType": "uint256",
          "name": "",
          "type": "uint256"
        }
      ],
      "name": "itemsByType",
      "outputs": [
        {
          "internalType": "uint256",
          "name": "",
          "type": "uint256"
        }
      ],
      "stateMutability": "view",
      "type": "function"
    },
    {
      "inputs": [],
      "name": "name",
      "outputs": [
        {
          "internalType": "string",
          "name": "",
          "type": "string"
        }
      ],
      "stateMutability": "view",
      "type": "function"
    },
    {
      "inputs": [],
      "name": "owner",
      "outputs": [
        {
          "internalType": "address",
          "name": "",
          "type": "address"
        }
      ],
      "stateMutability": "view",
      "type": "function"
    },
    {
      "inputs": [
        {
          "internalType": "uint256",
          "name": "tokenId",
          "type": "uint256"
        }
      ],
      "name": "ownerOf",
      "outputs": [
        {
          "internalType": "address",
          "name": "",
          "type": "address"
        }
      ],
      "stateMutability": "view",
      "type": "function"
    },
    {
      "inputs": [],
      "name": "pause",
      "outputs": [],
      "stateMutability": "nonpayable",
      "type": "function"
    },
    {
      "inputs": [],
      "name": "paused",
      "outputs": [
        {
          "internalType": "bool",
          "name": "",
          "type": "bool"
        }
      ],
      "stateMutability": "view",
      "type": "function"
    },
    {
      "inputs": [],
      "name": "renounceOwnership",
      "outputs": [],
      "stateMutability": "nonpayable",
      "type": "function"
    },
    {
      "inputs": [
        {
          "internalType": "address",
          "name": "from",
          "type": "address"
        },
        {
          "internalType": "address",
          "name": "to",
          "type": "address"
        },
        {
          "internalType": "uint256",
          "name": "tokenId",
          "type": "uint256"
        }
      ],
      "name": "safeTransferFrom",
      "outputs": [],
      "stateMutability": "nonpayable",
      "type": "function"
    },
    {
      "inputs": [
        {
          "internalType": "address",
          "name": "from",
          "type": "address"
        },
        {
          "internalType": "address",
          "name": "to",
          "type": "address"
        },
        {
          "internalType": "uint256",
          "name": "tokenId",
          "type": "uint256"
        },
        {
          "internalType": "bytes",
          "name": "data",
          "type": "bytes"
        }
      ],
      "name": "safeTransferFrom",
      "outputs": [],
      "stateMutability": "nonpayable",
      "type": "function"
    },
    {
      "inputs": [
        {
          "internalType": "address",
          "name": "operator",
          "type": "address"
        },
        {
          "internalType": "bool",
          "name": "approved",
          "type": "bool"
        }
      ],
      "name": "setApprovalForAll",
      "outputs": [],
      "stateMutability": "nonpayable",
      "type": "function"
    },
    {
      "inputs": [
        {
          "internalType": "address",
          "name": "minter",
          "type": "address"
        },
        {
          "internalType": "bool",
          "name": "authorized",
          "type": "bool"
        }
      ],
      "name": "setAuthorizedMinter",
      "outputs": [],
      "stateMutability": "nonpayable",
      "type": "function"
    },
    {
      "inputs": [
        {
          "internalType": "string[]",
          "name": "categories",
          "type": "string[]"
        },
        {
          "internalType": "bool",
          "name": "compatible",
          "type": "bool"
        }
      ],
      "name": "setBatchCompatibility",
      "outputs": [],
      "stateMutability": "nonpayable",
      "type": "function"
    },
    {
      "inputs": [
        {
          "internalType": "string",
          "name": "category1",
          "type": "string"
        },
        {
          "internalType": "string",
          "name": "category2",
          "type": "string"
        },
        {
          "internalType": "bool",
          "name": "compatible",
          "type": "bool"
        }
      ],
      "name": "setCategoryCompatibility",
      "outputs": [],
      "stateMutability": "nonpayable",
      "type": "function"
    },
    {
      "inputs": [
        {
          "internalType": "uint256",
          "name": "tokenId",
          "type": "uint256"
        },
        {
          "internalType": "bool",
          "name": "transferable",
          "type": "bool"
        }
      ],
      "name": "setItemTransferable",
      "outputs": [],
      "stateMutability": "nonpayable",
      "type": "function"
    },
    {
      "inputs": [
        {
          "internalType": "bytes4",
          "name": "interfaceId",
          "type": "bytes4"
        }
      ],
      "name": "supportsInterface",
      "outputs": [
        {
          "internalType": "bool",
          "name": "",
          "type": "bool"
        }
      ],
      "stateMutability": "view",
      "type": "function"
    },
    {
      "inputs": [],
      "name": "symbol",
      "outputs": [
        {
          "internalType": "string",
          "name": "",
          "type": "string"
        }
      ],
      "stateMutability": "view",
      "type": "function"
    },
    {
      "inputs": [
        {
          "internalType": "uint256",
          "name": "tokenId",
          "type": "uint256"
        }
      ],
      "name": "tokenURI",
      "outputs": [
        {
          "internalType": "string",
          "name": "",
          "type": "string"
        }
      ],
      "stateMutability": "view",
      "type": "function"
    },
    {
      "inputs": [
        {
          "internalType": "address",
          "name": "from",
          "type": "address"
        },
        {
          "internalType": "address",
          "name": "to",
          "type": "address"
        },
        {
          "internalType": "uint256",
          "name": "tokenId",
          "type": "uint256"
        }
      ],
      "name": "transferFrom",
      "outputs": [],
      "stateMutability": "nonpayable",
      "type": "function"
    },
    {
      "inputs": [
        {
          "internalType": "address",
          "name": "newOwner",
          "type": "address"
        }
      ],
      "name": "transferOwnership",
      "outputs": [],
      "stateMutability": "nonpayable",
      "type": "function"
    },
    {
      "inputs": [],
      "name": "unpause",
      "outputs": [],
      "stateMutability": "nonpayable",
      "type": "function"
    },
    {
      "inputs": [
        {
          "internalType": "uint256",
          "name": "tokenId",
          "type": "uint256"
        },
        {
          "internalType": "uint256",
          "name": "newLevel",
          "type": "uint256"
        }
      ],
      "name": "upgradeItem",
      "outputs": [],
      "stateMutability": "nonpayable",
      "type": "function"
    },
    {
      "inputs": [
        {
          "internalType": "uint256",
          "name": "tokenId",
          "type": "uint256"
        },
        {
          "internalType": "uint256",
          "name": "gameId",
          "type": "uint256"
        }
      ],
      "name": "useItem",
      "outputs": [],
      "stateMutability": "nonpayable",
      "type": "function"
    },
    {
      "inputs": [
        {
          "internalType": "address",
          "name": "",
          "type": "address"
        },
        {
          "internalType": "uint256",
          "name": "",
          "type": "uint256"
        }
      ],
      "name": "userItems",
      "outputs": [
        {
          "internalType": "uint256",
          "name": "",
          "type": "uint256"
        }
      ],
      "stateMutability": "view",
      "type": "function"
    }
  ],
  "bytecode": "0x6080346200045c576001600160401b03906040908082018381118282101762000446578252600d81526020906c11d85b5948125d195b48139195609a1b82820152825193838501858110828211176200044657845260048552634954454d60e01b83860152815181811162000446576000938454916001948584811c941680156200043b575b8385101462000427578190601f94858111620003d4575b5083908583116001146200037057889262000364575b5050600019600383901b1c191690851b1785555b8651928311620003505783548481811c9116801562000345575b828210146200033157828111620002e9575b50809183116001146200028257508394958293949262000276575b5050600019600383901b1c191690821b1781555b60075483519233906001600160a01b038316907f8be0079c531659141344cd1fd0a4f28419497f9722a3daafe3b4186f6b6457e09080a360ff60a01b1933169060018060a81b031916176007556252504760e81b91828152601060038181840152602380809420956026808951654d4d4f52504760d01b998a82526006820152209760ff1998888a82541617905589519081528560068201522088519182528382015220848682541617905582865181806246505360e81b92838152868682015220818a516254505360e81b928382528782015220888a825416179055895190815285858201522088519182528382015220848682541617905582865192816252545360e81b94858152828582015220908289516254425360e81b93848252868201522087898254161790558851918252838201522090865192835282015220918254161790555161357c9081620004628239f35b0151905038806200010d565b90601f198316968486528286209286905b898210620002d1575050838596979810620002b7575b505050811b01815562000121565b015160001960f88460031b161c19169055388080620002a9565b80878596829496860151815501950193019062000293565b8486528186208380860160051c82019284871062000327575b0160051c019085905b8281106200031b575050620000f2565b8781550185906200030b565b9250819262000302565b634e487b7160e01b86526022600452602486fd5b90607f1690620000e0565b634e487b7160e01b85526041600452602485fd5b015190503880620000b2565b8880528489208894509190601f1984168a5b87828210620003bd5750508411620003a3575b505050811b018555620000c6565b015160001960f88460031b161c1916905538808062000395565b8385015186558b9790950194938401930162000382565b9091508780528388208580850160051c8201928686106200041d575b918991869594930160051c01915b8281106200040e5750506200009c565b8a8155859450899101620003fe565b92508192620003f0565b634e487b7160e01b87526022600452602487fd5b93607f169362000085565b634e487b7160e01b600052604160045260246000fd5b600080fdfe608080604052600436101561001357600080fd5b60003560e01c90816301ffc9a7146127b05750806306fdde031461270d578063081812fc146126ef578063095ea7b3146125755780630cf8bcab146125055780631ef0aea5146124d357806323b872dd146124aa5780632500eacc146123c15780633f4ba83a1461232557806342842e0e146122fd578063430074c2146121c65780635beb129c146121885780635c3bd1411461213e5780635c975abb146121185780635f1063f4146120905780636352211e1461206057806370a0823114611fc9578063715018a614611f6c5780638456cb5914611f0a5780638c3333ad14611e6f5780638da5cb5b14611e465780638e34c50e14611e235780639402a9b914611ddc57806394f13f4a14611b7b57806395061acf146119da57806395d89b41146118fb5780639daa33631461171b5780639fe6f7dd14611696578063a22cb465146115be578063aa2fe91b1461157f578063afac0c8f1461124e578063b7b005781461145f578063b88d4fde14611400578063c87b56dd1461138e578063ce6019b414611316578063d6143adb14611296578063e62b3c431461124e578063e985e9c5146111f8578063ed58bad8146111a3578063f1a2fa4e14611164578063f2fde38b146110a05763f5a00b8e146101ed57600080fd5b3461109b5760031960203682011261109b576001600160401b036004351161109b57610180906004353603011261109b5760405161018081018181106001600160401b03821117610ae1576040526004803501356001600160a01b038116810361109b578152602460043501356001600160401b03811161109b57610279906004369181350101612962565b6020820152604460043501356001600160401b03811161109b576102a4906004369181350101612962565b6040820152606460043501356001600160401b03811161109b576102cf906004369181350101612962565b6060820152608460043501356001600160401b03811161109b576102fa906004369181350101612962565b60808201526004803560a481013560a084015260c40135101561109b5760c4600435013560c08201526001600160401b0360e460043501351161109b5761034b366004803560e48101350101612962565b60e08201526004356101040135801515900361109b576004356101048101356101008301526101248101356101208301526101448101356101408301526001600160401b03610164909101351161109b576103b136600480356101648101350101612962565b61016082015233600052600f60205260ff604060002054168015611087575b6103d990613277565b6103e16132f0565b80516001600160a01b03161561104257602081015151156110065760608101515115610fc15760808101515115610f7c57600160085401908160085560018060a01b038151168015610f3857600083815260026020526040902054839190610455906001600160a01b031615155b15613337565b61045d6132f0565b600082815260026020526040902054610480906001600160a01b0316151561044f565b8060005260036020526040600020600181540190558160005260026020526040600020816001600160601b0360a01b82541617905560007fddf252ad1be2c89b69c2b068fc378daa952ba7f163c4a11628f55a4df523b3ef8180a46101608101516000838152600260205260409020549092906001600160a01b031615610edc57806000526006602052604060002083516001600160401b038111610ae1576105298254612a50565b601f8111610e98575b506020601f8211600114610e2f578192939495600092610e24575b50508160011b916000199060031b1c19161790555b7ff8e1a15aba9398e019f0b49df1a4fde98ee17ae345cb5f6b5e2c27f5033e8ce76020604051838152a1602082015160408301516060840151608085015160a086015160c08701516004811015610a035761060a60e08901519160018060a01b038a5116936101008b01511515956101208c0151976101408d0151996040519b6105eb8d6128b8565b8c5260208c015260408b015260608a0152608089015260a088016132bc565b60c086015260e085015242610100850152600161012085015261014084015261016083015261018082015281600052600960205260406000209080518051906001600160401b038211610ae15781906106638554612a50565b601f8111610dd4575b50602090601f8311600114610d6857600092610d5d575b50508160011b916000199060031b1c19161782555b60208101518051906001600160401b038211610ae15781906106bd6001860154612a50565b601f8111610d0a575b50602090601f8311600114610c9d57600092610c92575b50508160011b916000199060031b1c19161760018301555b60408101518051906001600160401b038211610ae157819061071a6002860154612a50565b601f8111610c3f575b50602090601f8311600114610bd257600092610bc7575b50508160011b916000199060031b1c19161760028301555b60608101518051906001600160401b038211610ae15781906107776003860154612a50565b601f8111610b74575b50602090601f8311600114610b0257600092610af7575b50508160011b916000199060031b1c19161760038301555b608081015160048301556005820160a08201516004811015610a035760ff8019835416911617905560c08101518051906001600160401b038211610ae1576107fa6006850154612a50565b601f8111610a9a575b50602090601f8311600114610a24579180600b949261018094600092610a19575b50508160011b916000199060031b1c19161760068501555b6007840160018060a01b0360e0830151166001600160601b0360a01b82541617905561010081015160088501556009840161088a6101208301511515829060ff801983541691151516179055565b610140820151151561ff0082549160081b169061ff001916179055610160810151600a85015501519101556108e5816108d6602060808601518160405193828580945193849201612835565b8101600a8152030190206132c8565b61091581610906602060608601518160405193828580945193849201612835565b8101600b8152030190206132c8565b60c08201516004811015610a03578161093061093592612b3d565b6132c8565b60a0820151600052600d6020526109508160406000206132c8565b60018060a01b03825116600052600e6020526109708160406000206132c8565b815160a08301516020840151608085015160c09095015191926001600160a01b0316916004811015610a03576109e085927f99662c6b58d9e79c3b0a591b24d2e61869e09e316fdda3578649c8c10e66b74a926109f86109ed60209a604051958695606087526060870190612858565b908582038d870152612858565b916040840190612b30565b0390a4604051908152f35b634e487b7160e01b600052602160045260246000fd5b015190503880610824565b906006850160005260206000209160005b601f1985168110610a82575092600b94926001926101809583601f19811610610a69575b505050811b01600685015561083c565b015160001960f88460031b161c19169055388080610a59565b91926020600181928685015181550194019201610a35565b600685016000526020600020601f840160051c810160208510610ada575b601f830160051c82018110610ace575050610803565b60008155600101610ab8565b5080610ab8565b634e487b7160e01b600052604160045260246000fd5b015190503880610797565b9250600385016000526020600020906000935b601f1984168510610b59576001945083601f19811610610b40575b505050811b0160038301556107af565b015160001960f88460031b161c19169055388080610b30565b81810151835560209485019460019093019290910190610b15565b909150600385016000526020600020601f840160051c810160208510610bc0575b90849392915b601f830160051c82018110610bb1575050610780565b60008155859450600101610b9b565b5080610b95565b01519050388061073a565b600286016000908152602081209350601f198516905b818110610c275750908460019594939210610c0e575b505050811b016002830155610752565b015160001960f88460031b161c19169055388080610bfe565b92936020600181928786015181550195019301610be8565b909150600285016000526020600020601f840160051c810160208510610c8b575b90849392915b601f830160051c82018110610c7c575050610723565b60008155859450600101610c66565b5080610c60565b0151905038806106dd565b600186016000908152602081209350601f198516905b818110610cf25750908460019594939210610cd9575b505050811b0160018301556106f5565b015160001960f88460031b161c19169055388080610cc9565b92936020600181928786015181550195019301610cb3565b909150600185016000526020600020601f840160051c810160208510610d56575b90849392915b601f830160051c82018110610d475750506106c6565b60008155859450600101610d31565b5080610d2b565b015190503880610683565b9250846000526020600020906000935b601f1984168510610db9576001945083601f19811610610da0575b505050811b018255610698565b015160001960f88460031b161c19169055388080610d93565b81810151835560209485019460019093019290910190610d78565b909150846000526020600020601f840160051c810160208510610e1d575b90849392915b601f830160051c82018110610e0e57505061066c565b60008155859450600101610df8565b5080610df2565b01519050388061054d565b8260005260206000209060005b601f1984168110610e80575060019394959683601f19811610610e67575b505050811b019055610562565b015160001960f88460031b161c19169055388080610e5a565b9091602060018192858b015181550193019101610e3c565b826000526020600020601f830160051c810160208410610ed5575b601f830160051c82018110610ec9575050610532565b60008155600101610eb3565b5080610eb3565b60405162461bcd60e51b815260206004820152602e60248201527f45524337323155524953746f726167653a2055524920736574206f66206e6f6e60448201526d32bc34b9ba32b73a103a37b5b2b760911b6064820152608490fd5b606460405162461bcd60e51b815260206004820152602060248201527f4552433732313a206d696e7420746f20746865207a65726f20616464726573736044820152fd5b60405162461bcd60e51b815260206004820152601d60248201527f47616d652063617465676f72792063616e6e6f7420626520656d7074790000006044820152606490fd5b60405162461bcd60e51b815260206004820152601960248201527f4974656d20747970652063616e6e6f7420626520656d707479000000000000006044820152606490fd5b60405162461bcd60e51b81526020600482015260146024820152734e616d652063616e6e6f7420626520656d70747960601b6044820152606490fd5b60405162461bcd60e51b815260206004820152601b60248201527f43616e6e6f74206d696e7420746f207a65726f206164647265737300000000006044820152606490fd5b506007546001600160a01b031633146103d0565b600080fd5b3461109b57602036600319011261109b576110b961287d565b6110c1612b91565b6001600160a01b0390811690811561111057600754826001600160601b0360a01b821617600755167f8be0079c531659141344cd1fd0a4f28419497f9722a3daafe3b4186f6b6457e0600080a3005b60405162461bcd60e51b815260206004820152602660248201527f4f776e61626c653a206e6577206f776e657220697320746865207a65726f206160448201526564647265737360d01b6064820152608490fd5b3461109b5761117236612a3a565b90600052600d6020526040600020805482101561109b57602091611195916129d7565b90546040519160031b1c8152f35b3461109b57604036600319011261109b576111f66111bf61287d565b6111c76128a9565b906111d0612b91565b60018060a01b0316600052600f60205260406000209060ff801983541691151516179055565b005b3461109b57604036600319011261109b5761121161287d565b611219612893565b9060018060a01b03809116600052600560205260406000209116600052602052602060ff604060002054166040519015158152f35b3461109b57604036600319011261109b57611267612893565b600435600052601160205260406000209060018060a01b03166000526020526020604060002054604051908152f35b3461109b5760208060031936011261109b57600435600481101561109b576112bd90612b3d565b90604051908181845491828152019360005281600020916000905b8282106112ff576112fb856112ef818903826128ef565b60405191829182612b56565b0390f35b8354865294850194600193840193909101906112d8565b3461109b5760208060031936011261109b576001600160a01b0361133861287d565b16600052600e8152604060002090604051908181845491828152019360005281600020916000905b828210611377576112fb856112ef818903826128ef565b835486529485019460019384019390910190611360565b3461109b57602036600319011261109b576004356000818152600260205260409020546113c5906001600160a01b03161515612be9565b60005260066020526112fb6113dd6040600020612a8a565b60006040516113eb816128d4565b52604051918291602083526020830190612858565b3461109b57608036600319011261109b5761141961287d565b611421612893565b606435916001600160401b03831161109b573660238401121561109b576114556111f693369060248160040135910161292b565b9160443591612cf8565b3461109b57606036600319011261109b576001600160401b0360043581811161109b57611490903690600401612962565b9060243590811161109b576114a9903690600401612962565b6044359182151580840361109b57611574611566936115527fc23eb519907bcd2636d80f2678ca5750bc01cfbd55c80319ed8fd088682a1fb4966114eb612b91565b61152a81611519604051602081816115098d83815193849201612835565b81016010815203019020866129b1565b9060ff801983541691151516179055565b61151960405160208186516115428183858b01612835565b81016010815203019020876129b1565b604051948594606086526060860190612858565b908482036020860152612858565b9060408301520390a1005b3461109b57602036600319011261109b576001600160a01b036115a061287d565b16600052600f602052602060ff604060002054166040519015158152f35b3461109b57604036600319011261109b576115d761287d565b6115df6128a9565b6001600160a01b0390911690338214611651573360005260056020526040600020826000526020526116218160406000209060ff801983541691151516179055565b60405190151581527f17307eab39ab6107e8899845ad3d59bd9653f200f220920489ca2b5937696c3160203392a3005b60405162461bcd60e51b815260206004820152601960248201527f4552433732313a20617070726f766520746f2063616c6c6572000000000000006044820152606490fd5b3461109b57604036600319011261109b576001600160401b0360043581811161109b576116c7903690600401612962565b60243591821161109b5761170f60ff916116ff60206116eb81963690600401612962565b928160405193828580945193849201612835565b81016010815203019020906129b1565b54166040519015158152f35b3461109b57604036600319011261109b576001600160401b0360043581811161109b573660238201121561109b57806004013591808311610ae1578260051b916040519160209461176e868601856128ef565b835284830190602480958401019236841161109b57858101925b8484106118d55787878761179a6128a9565b926117a3612b91565b8315159060005b83518110156111f65760018082018083116118c057815b6117d6575b50506117d1906133c5565b6117aa565b85518110156118bb576118b5817fc23eb519907bcd2636d80f2678ca5750bc01cfbd55c80319ed8fd088682a1fb461189a896118a78d6118876118258a9961181e8d87613415565b5195613415565b519161182f612b91565b6115198d60405190611864846115198361184f8c87815193849201612835565b850194848160109788815203019020896129b1565b604051809287516118788184868c01612835565b820190815203019020866129b1565b6040519384936060808652850190612858565b908382038c850152612858565b8a60408301520390a16133c5565b906117c1565b6117c6565b86634e487b7160e01b60005260116004526000fd5b833583811161109b5788916118f083928a3691870101612962565b815201930192611788565b3461109b57600036600319011261109b576040516000600180549061191f82612a50565b808552918181169081156119b3575060011461195a575b6112fb84611946818603826128ef565b604051918291602083526020830190612858565b600081815292507fb10e2d527612073b26eecdfd717e6a320cf44b4afac2b0732d9fcbe2b7fa0cf65b82841061199b57505050810160200161194682611936565b80546020858701810191909152909301928101611983565b60ff191660208087019190915292151560051b850190920192506119469150839050611936565b3461109b576119e836612a3a565b90336000526020600f815260ff604060002054168015611b67575b611a0c90613277565b611a146132f0565b600082815260026020526040902054611a3c906001600160a01b03161515613383565b613383565b81600052600981526040600020836004820154148015611b40575b15611afd57600a01805480158015611ad5575b505050600082815260118252604090206001600160a01b039182611a8d85612c35565b16600052526040600020611aa181546133c5565b9055611aac82612c35565b16907fce0ed18be1f7e35eed96c51492312a3f7af5681c93af73ecb7509e040728ba78600080a4005b611ae757600019019055838080611a6a565b634e487b7160e01b600052601160045260246000fd5b6064826040519062461bcd60e51b825280600483015260248201527f4974656d2063616e6e6f74206265207573656420696e20746869732067616d656044820152fd5b5060ff600982015460081c168015611a575750611b5f60038201612a8a565b506001611a57565b506007546001600160a01b03163314611a03565b3461109b57602036600319011261109b576004356000610180604051611ba0816128b8565b6060815260606020820152606060408201526060808201528260808201528260a0820152606060c08201528260e0820152826101008201528261012082015282610140820152826101608201520152611c11611a3782600052600260205260018060a01b0360406000205416151590565b60005260096020526040600020600b60405191611c2d836128b8565b611c3681612a8a565b8352611c4460018201612a8a565b6020840152611c5560028201612a8a565b6040840152611c6660038201612a8a565b606084015260048101546080840152611c8960ff60058301541660a085016132bc565b611c9560068201612a8a565b60c084015260018060a01b0360078201541660e0840152600881015461010084015260ff6009820154818116151561012086015260081c161515610140840152600a8101546101608401520154610180820152604051809160208252610180611d8a611d0f83516101a060208701526101c0860190612858565b611d59611d45611d31602087015193601f1994858a83030160408b0152612858565b6040870151848983030160608a0152612858565b606086015183888303016080890152612858565b90608085015160a0870152611d7660a086015160c0880190612b30565b60c0850151908683030160e0870152612858565b9160018060a01b0360e082015116610100850152610100810151610120850152610120810151151561014085015261014081015115156101608501526101608101518285015201516101a08301520390f35b3461109b576020611e04611def36612980565b92908160405193828580945193849201612835565b8101600a815203019020805482101561109b57602091611195916129d7565b3461109b576020611e3c611e3636612a3a565b90613429565b6040519015158152f35b3461109b57600036600319011261109b576007546040516001600160a01b039091168152602090f35b3461109b5760208060031936011261109b576004356001600160401b03811161109b5781611ea4611eb7923690600401612962565b8160405193828580945193849201612835565b8101600b81520301902090604051908181845491828152019360005281600020916000905b828210611ef3576112fb856112ef818903826128ef565b835486529485019460019384019390910190611edc565b3461109b57600036600319011261109b57611f23612b91565b611f2b6132f0565b6007805460ff60a01b1916600160a01b1790556040513381527f62e78cea01bee320cd4e420270b5ea74000d11b0c9f74754ebdbfc544b05a25890602090a1005b3461109b57600036600319011261109b57611f85612b91565b600780546001600160a01b031981169091556000906001600160a01b03167f8be0079c531659141344cd1fd0a4f28419497f9722a3daafe3b4186f6b6457e08280a3005b3461109b57602036600319011261109b576001600160a01b03611fea61287d565b1680156120095760005260036020526020604060002054604051908152f35b60405162461bcd60e51b815260206004820152602960248201527f4552433732313a2061646472657373207a65726f206973206e6f7420612076616044820152683634b21037bbb732b960b91b6064820152608490fd5b3461109b57602036600319011261109b57602061207e600435612c35565b6040516001600160a01b039091168152f35b3461109b5760208060031936011261109b576004356001600160401b03811161109b5781611ea46120c5923690600401612962565b8101600a81520301902090604051908181845491828152019360005281600020916000905b828210612101576112fb856112ef818903826128ef565b8354865294850194600193840193909101906120ea565b3461109b57600036600319011261109b57602060ff60075460a01c166040519015158152f35b3461109b57604036600319011261109b5761215761287d565b6001600160a01b03166000908152600e602052604090208054602435919082101561109b57602091611195916129d7565b3461109b57604036600319011261109b57600435600481101561109b576121b160243591612b3d565b805482101561109b57602091611195916129d7565b3461109b57602036600319011261109b57600435600052600960205260406000206121f081612a8a565b6121fc60018301612a8a565b9161220960028201612a8a565b61221560038301612a8a565b91600481015492600582015460ff166006830161223190612a8a565b600160a01b6001900360078501541695600885015492600986015494600a87015496600b0154976040519b8c9b8c6101a08091528d0161227091612858565b8c810360208e015261228191612858565b8b810360408d015261229291612858565b8a810360608c01526122a391612858565b9160808a015260a089016122b691612b30565b87810360c08901526122c791612858565b9460e087015261010086015260ff8116151561012086015260081c60ff1615156101408501526101608401526101808301520390f35b3461109b576111f661230e36612a05565b906040519261231c846128d4565b60008452612cf8565b3461109b57600036600319011261109b5761233e612b91565b60075460ff8160a01c16156123855760ff60a01b19166007556040513381527f5db9ee0a495bf2e6ff9c91a7834c1ba4fdd244a5e8aa4e537bd38aeae4b073aa90602090a1005b60405162461bcd60e51b815260206004820152601460248201527314185d5cd8589b194e881b9bdd081c185d5cd95960621b6044820152606490fd5b3461109b576123cf36612a3a565b6123eb6123db83612c35565b6001600160a01b031633146133d4565b6123f36132f0565b600082815260026020526040902054612416906001600160a01b03161515613383565b816000526009602052600b60406000200180548083111561246557827ff76e6830f434f89b6fcf8bfe4207e8b8a46a77365c98ef5e9d0a3ec7a7b79482936040935582519182526020820152a2005b60405162461bcd60e51b815260206004820152601860248201527f4e6577206c6576656c206d7573742062652068696768657200000000000000006044820152606490fd5b3461109b576111f66124bb36612a05565b916124ce6124c98433612d93565b612c96565b612e5b565b3461109b5760206124e6611def36612980565b8101600b815203019020805482101561109b57602091611195916129d7565b3461109b57604036600319011261109b576111f66004356125246128a9565b906125316123db82612c35565b600081815260026020526040902054612554906001600160a01b03161515613383565b600052600960205260096040600020019060ff801983541691151516179055565b3461109b57604036600319011261109b5761258e61287d565b602435906001600160a01b0380806125a585612c35565b169216918083146126a05780331490811561267b575b501561261057600083815260046020526040902080546001600160a01b031916831790556125e883612c35565b167f8c5be1e5ebec7d5bd14f71427d1e84f3dd0314c0f7b2291e5b200ac8c7c3b925600080a4005b60405162461bcd60e51b815260206004820152603d60248201527f4552433732313a20617070726f76652063616c6c6572206973206e6f7420746f60448201527f6b656e206f776e6572206f7220617070726f76656420666f7220616c6c0000006064820152608490fd5b9050600052600560205260406000203360005260205260ff60406000205416846125bb565b60405162461bcd60e51b815260206004820152602160248201527f4552433732313a20617070726f76616c20746f2063757272656e74206f776e656044820152603960f91b6064820152608490fd5b3461109b57602036600319011261109b57602061207e600435612c58565b3461109b57600036600319011261109b576040516000805461272e81612a50565b808452906001908181169081156119b35750600114612757576112fb84611946818603826128ef565b600080805292507f290decd9548b62a8d60345a988386fc84ba6bc95484008f6362f93160ef3e5635b82841061279857505050810160200161194682611936565b80546020858701810191909152909301928101612780565b3461109b57602036600319011261109b576004359063ffffffff60e01b821680920361109b57602091632483248360e11b81149081156127f2575b5015158152f35b6380ac58cd60e01b811491508115612824575b8115612813575b50836127eb565b6301ffc9a760e01b1490508361280c565b635b5e139f60e01b81149150612805565b60005b8381106128485750506000910152565b8181015183820152602001612838565b9060209161287181518092818552858086019101612835565b601f01601f1916010190565b600435906001600160a01b038216820361109b57565b602435906001600160a01b038216820361109b57565b60243590811515820361109b57565b6101a081019081106001600160401b03821117610ae157604052565b602081019081106001600160401b03821117610ae157604052565b90601f801991011681019081106001600160401b03821117610ae157604052565b6001600160401b038111610ae157601f01601f191660200190565b92919261293782612910565b9161294560405193846128ef565b82948184528183011161109b578281602093846000960137010152565b9080601f8301121561109b5781602061297d9335910161292b565b90565b604060031982011261109b57600435906001600160401b03821161109b576129aa91600401612962565b9060243590565b6020906129cb928260405194838680955193849201612835565b82019081520301902090565b80548210156129ef5760005260206000200190600090565b634e487b7160e01b600052603260045260246000fd5b606090600319011261109b576001600160a01b0390600435828116810361109b5791602435908116810361109b579060443590565b604090600319011261109b576004359060243590565b90600182811c92168015612a80575b6020831014612a6a57565b634e487b7160e01b600052602260045260246000fd5b91607f1691612a5f565b9060405191826000825492612a9e84612a50565b908184526001948581169081600014612b0d5750600114612aca575b5050612ac8925003836128ef565b565b9093915060005260209081600020936000915b818310612af5575050612ac893508201013880612aba565b85548884018501529485019487945091830191612add565b915050612ac894506020925060ff191682840152151560051b8201013880612aba565b906004821015610a035752565b6004811015610a0357600052600c602052604060002090565b6020908160408183019282815285518094520193019160005b828110612b7d575050505090565b835185529381019392810192600101612b6f565b6007546001600160a01b03163303612ba557565b606460405162461bcd60e51b815260206004820152602060248201527f4f776e61626c653a2063616c6c6572206973206e6f7420746865206f776e65726044820152fd5b15612bf057565b60405162461bcd60e51b815260206004820152601860248201527f4552433732313a20696e76616c696420746f6b656e20494400000000000000006044820152606490fd5b6000908152600260205260409020546001600160a01b031661297d811515612be9565b600081815260026020526040902054612c7b906001600160a01b03161515612be9565b6000908152600460205260409020546001600160a01b031690565b15612c9d57565b60405162461bcd60e51b815260206004820152602d60248201527f4552433732313a2063616c6c6572206973206e6f7420746f6b656e206f776e6560448201526c1c881bdc88185c1c1c9bdd9959609a1b6064820152608490fd5b90612d1c939291612d0c6124c98433612d93565b612d17838383612e5b565b613152565b15612d2357565b60405162461bcd60e51b815280612d3c60048201612d40565b0390fd5b60809060208152603260208201527f4552433732313a207472616e7366657220746f206e6f6e20455243373231526560408201527131b2b4bb32b91034b6b83632b6b2b73a32b960711b60608201520190565b906001600160a01b038080612da784612c35565b16931691838314938415612dda575b508315612dc4575b50505090565b612dd091929350612c58565b1614388080612dbe565b909350600052600560205260406000208260005260205260ff604060002054169238612db6565b15612e0857565b60405162461bcd60e51b815260206004820152602560248201527f4552433732313a207472616e736665722066726f6d20696e636f72726563742060448201526437bbb732b960d91b6064820152608490fd5b90612e8391612e6984612c35565b6001600160a01b0393918416928492909183168414612e01565b1691821561310157612e936132f0565b81612f29575b81612eae91612ea786612c35565b1614612e01565b7fddf252ad1be2c89b69c2b068fc378daa952ba7f163c4a11628f55a4df523b3ef60008481526004602052604081206001600160601b0360a01b9081815416905583825260036020526040822060001981540190558482526040822060018154019055858252600260205284604083209182541617905580a4565b929190600093838552602060098152604060ff6009828920015416156130be57838752600e825280872096805b885480821015613082578890612f6c838c6129d7565b929054600393841b1c14612f8a575050612f85906133c5565b612f56565b909293949596979899916000199182810190811161306e5790612fc0612fb3612fd993866129d7565b905490871b1c91856129d7565b90919082549060031b91821b91600019901b1916179055565b8154801561305a5795856004612eae99978c978c9a978f97877fa878aff89f953a37d6f49daca7e239720fc2b866aa8741ac66a8117c0de02ef8988e9b019261302284846129d7565b81939154921b1b19169055555b888152600e8552613042878383206132c8565b868152600985522001549051908152a4915050612e99565b634e487b7160e01b85526031600452602485fd5b634e487b7160e01b86526011600452602486fd5b505086869798507fa878aff89f953a37d6f49daca7e239720fc2b866aa8741ac66a8117c0de02ef886979394856004899897612eae9a9661302f565b60649250519062461bcd60e51b82526004820152601860248201527f4974656d206973206e6f74207472616e7366657261626c6500000000000000006044820152fd5b60405162461bcd60e51b8152602060048201526024808201527f4552433732313a207472616e7366657220746f20746865207a65726f206164646044820152637265737360e01b6064820152608490fd5b9293600093909291803b1561326c579484916131ac9660405180948193630a85bd0160e11b9788845233600485015260018060a01b0380921660248501526044840152608060648401528260209b8c976084830190612858565b0393165af1849181613228575b50613217575050503d60001461320f573d6131d381612910565b906131e160405192836128ef565b81528091833d92013e5b8051918261320c5760405162461bcd60e51b815280612d3c60048201612d40565b01fd5b5060606131eb565b6001600160e01b0319161492509050565b9091508581813d8311613265575b61324081836128ef565b8101031261326157516001600160e01b0319811681036132615790386131b9565b8480fd5b503d613236565b505050915050600190565b1561327e57565b60405162461bcd60e51b8152602060048201526016602482015275139bdd08185d5d1a1bdc9a5e9959081d1bc81b5a5b9d60521b6044820152606490fd5b6004821015610a035752565b9081549168010000000000000000831015610ae15782612fc0916001612ac8950181556129d7565b60ff60075460a01c166132ff57565b60405162461bcd60e51b815260206004820152601060248201526f14185d5cd8589b194e881c185d5cd95960821b6044820152606490fd5b1561333e57565b60405162461bcd60e51b815260206004820152601c60248201527f4552433732313a20746f6b656e20616c7265616479206d696e746564000000006044820152606490fd5b1561338a57565b60405162461bcd60e51b8152602060048201526013602482015272125d195b48191bd95cc81b9bdd08195e1a5cdd606a1b6044820152606490fd5b6000198114611ae75760010190565b156133db57565b60405162461bcd60e51b81526020600482015260126024820152712737ba103a34329034ba32b69037bbb732b960711b6044820152606490fd5b80518210156129ef5760209160051b010190565b6000818152600260205260409020546001600160a01b03161561353f576000526009602052604060002090604051613460816128b8565b61346983612a8a565b815261347760018401612a8a565b602082015261348860028401612a8a565b604082015261349960038401612a8a565b6060820152600483015490608081019182526134bf60ff60058601541660a083016132bc565b6134cb60068501612a8a565b60c082015260018060a01b0360078501541660e08201526008840154610100820152610180600b60ff6009870154818116151561012086015260081c1615159586610140850152600a8101546101608501520154910152511490811561352f575090565b9050806135395790565b50600190565b505060009056fea2646970667358221220cab72882e396fab15bb99771c096c80249759acd4b1b718c739a5619ab5595f464736f6c63430008130033",
  "linkReferences": {},
  "deployedLinkReferences": {}
}