{
  "_format": "hh3-artifact-1",
  "contractName": "Marketplace",
  "sourceName": "contracts/Marketplace.sol",
  "abi": [
    {
      "inputs": [
        {
          "internalType": "address",
          "name": "_platformToken",
          "type": "address"
        },
        {
          "internalType": "address",
          "name": "_feeRecipient",
          "type": "address"
        },
        {
          "internalType": "uint256",
          "name": "_feeBasisPoints",
          "type": "uint256"
        }
      ],
      "stateMutability": "nonpayable",
      "type": "constructor"
    },
    {
      "inputs": [
        {
          "internalType": "address",
          "name": "owner",
          "type": "address"
        }
      ],
      "name": "OwnableInvalidOwner",
      "type": "error"
    },
    {
      "inputs": [
        {
          "internalType": "address",
          "name": "account",
          "type": "address"
        }
      ],
      "name": "OwnableUnauthorizedAccount",
      "type": "error"
    },
    {
      "inputs": [],
      "name": "ReentrancyGuardReentrantCall",
      "type": "error"
    },
    {
      "anonymous": false,
      "inputs": [
        {
          "indexed": true,
          "internalType": "uint256",
          "name": "listingId",
          "type": "uint256"
        },
        {
          "indexed": true,
          "internalType": "address",
          "name": "seller",
          "type": "address"
        }
      ],
      "name": "ItemCancelled",
      "type": "event"
    },
    {
      "anonymous": false,
      "inputs": [
        {
          "indexed": true,
          "internalType": "uint256",
          "name": "listingId",
          "type": "uint256"
        },
        {
          "indexed": true,
          "internalType": "address",
          "name": "seller",
          "type": "address"
        },
        {
          "indexed": false,
          "internalType": "address",
          "name": "tokenContract",
          "type": "address"
        },
        {
          "indexed": false,
          "internalType": "uint256",
          "name": "tokenId",
          "type": "uint256"
        },
        {
          "indexed": false,
          "internalType": "uint256",
          "name": "price",
          "type": "uint256"
        },
        {
          "indexed": false,
          "internalType": "enum Marketplace.TokenStandard",
          "name": "standard",
          "type": "uint8"
        },
        {
          "indexed": false,
          "internalType": "uint256",
          "name": "amount",
          "type": "uint256"
        }
      ],
      "name": "ItemListed",
      "type": "event"
    },
    {
      "anonymous": false,
      "inputs": [
        {
          "indexed": true,
          "internalType": "uint256",
          "name": "listingId",
          "type": "uint256"
        },
        {
          "indexed": true,
          "internalType": "address",
          "name": "buyer",
          "type": "address"
        },
        {
          "indexed": false,
          "internalType": "uint256",
          "name": "price",
          "type": "uint256"
        }
      ],
      "name": "ItemSold",
      "type": "event"
    },
    {
      "anonymous": false,
      "inputs": [
        {
          "indexed": true,
          "internalType": "address",
          "name": "previousOwner",
          "type": "address"
        },
        {
          "indexed": true,
          "internalType": "address",
          "name": "newOwner",
          "type": "address"
        }
      ],
      "name": "OwnershipTransferred",
      "type": "event"
    },
    {
      "inputs": [
        {
          "internalType": "uint256",
          "name": "listingId",
          "type": "uint256"
        }
      ],
      "name": "buy",
      "outputs": [],
      "stateMutability": "nonpayable",
      "type": "function"
    },
    {
      "inputs": [
        {
          "internalType": "uint256",
          "name": "listingId",
          "type": "uint256"
        }
      ],
      "name": "cancelListing",
      "outputs": [],
      "stateMutability": "nonpayable",
      "type": "function"
    },
    {
      "inputs": [],
      "name": "feeBasisPoints",
      "outputs": [
        {
          "internalType": "uint256",
          "name": "",
          "type": "uint256"
        }
      ],
      "stateMutability": "view",
      "type": "function"
    },
    {
      "inputs": [],
      "name": "feeRecipient",
      "outputs": [
        {
          "internalType": "address",
          "name": "",
          "type": "address"
        }
      ],
      "stateMutability": "view",
      "type": "function"
    },
    {
      "inputs": [
        {
          "internalType": "address",
          "name": "nftContract",
          "type": "address"
        },
        {
          "internalType": "uint256",
          "name": "tokenId",
          "type": "uint256"
        },
        {
          "internalType": "uint256",
          "name": "amount",
          "type": "uint256"
        },
        {
          "internalType": "uint256",
          "name": "price",
          "type": "uint256"
        }
      ],
      "name": "listERC1155",
      "outputs": [],
      "stateMutability": "nonpayable",
      "type": "function"
    },
    {
      "inputs": [
        {
          "internalType": "address",
          "name": "nftContract",
          "type": "address"
        },
        {
          "internalType": "uint256",
          "name": "tokenId",
          "type": "uint256"
        },
        {
          "internalType": "uint256",
          "name": "price",
          "type": "uint256"
        }
      ],
      "name": "listERC721",
      "outputs": [],
      "stateMutability": "nonpayable",
      "type": "function"
    },
    {
      "inputs": [],
      "name": "listingCounter",
      "outputs": [
        {
          "internalType": "uint256",
          "name": "",
          "type": "uint256"
        }
      ],
      "stateMutability": "view",
      "type": "function"
    },
    {
      "inputs": [
        {
          "internalType": "uint256",
          "name": "",
          "type": "uint256"
        }
      ],
      "name": "listings",
      "outputs": [
        {
          "internalType": "address",
          "name": "seller",
          "type": "address"
        },
        {
          "internalType": "address",
          "name": "tokenContract",
          "type": "address"
        },
        {
          "internalType": "uint256",
          "name": "tokenId",
          "type": "uint256"
        },
        {
          "internalType": "enum Marketplace.TokenStandard",
          "name": "standard",
          "type": "uint8"
        },
        {
          "internalType": "uint256",
          "name": "amount",
          "type": "uint256"
        },
        {
          "internalType": "uint256",
          "name": "price",
          "type": "uint256"
        },
        {
          "internalType": "bool",
          "name": "active",
          "type": "bool"
        },
        {
          "internalType": "uint256",
          "name": "createdAt",
          "type": "uint256"
        }
      ],
      "stateMutability": "view",
      "type": "function"
    },
    {
      "inputs": [
        {
          "internalType": "address",
          "name": "",
          "type": "address"
        },
        {
          "internalType": "address",
          "name": "",
          "type": "address"
        },
        {
          "internalType": "uint256[]",
          "name": "",
          "type": "uint256[]"
        },
        {
          "internalType": "uint256[]",
          "name": "",
          "type": "uint256[]"
        },
        {
          "internalType": "bytes",
          "name": "",
          "type": "bytes"
        }
      ],
      "name": "onERC1155BatchReceived",
      "outputs": [
        {
          "internalType": "bytes4",
          "name": "",
          "type": "bytes4"
        }
      ],
      "stateMutability": "pure",
      "type": "function"
    },
    {
      "inputs": [
        {
          "internalType": "address",
          "name": "",
          "type": "address"
        },
        {
          "internalType": "address",
          "name": "",
          "type": "address"
        },
        {
          "internalType": "uint256",
          "name": "",
          "type": "uint256"
        },
        {
          "internalType": "uint256",
          "name": "",
          "type": "uint256"
        },
        {
          "internalType": "bytes",
          "name": "",
          "type": "bytes"
        }
      ],
      "name": "onERC1155Received",
      "outputs": [
        {
          "internalType": "bytes4",
          "name": "",
          "type": "bytes4"
        }
      ],
      "stateMutability": "pure",
      "type": "function"
    },
    {
      "inputs": [],
      "name": "owner",
      "outputs": [
        {
          "internalType": "address",
          "name": "",
          "type": "address"
        }
      ],
      "stateMutability": "view",
      "type": "function"
    },
    {
      "inputs": [],
      "name": "platformToken",
      "outputs": [
        {
          "internalType": "contract IERC20",
          "name": "",
          "type": "address"
        }
      ],
      "stateMutability": "view",
      "type": "function"
    },
    {
      "inputs": [],
      "name": "renounceOwnership",
      "outputs": [],
      "stateMutability": "nonpayable",
      "type": "function"
    },
    {
      "inputs": [
        {
          "internalType": "uint256",
          "name": "_feeBasis",
          "type": "uint256"
        }
      ],
      "name": "setFeeBasisPoints",
      "outputs": [],
      "stateMutability": "nonpayable",
      "type": "function"
    },
    {
      "inputs": [
        {
          "internalType": "address",
          "name": "_feeRecipient",
          "type": "address"
        }
      ],
      "name": "setFeeRecipient",
      "outputs": [],
      "stateMutability": "nonpayable",
      "type": "function"
    },
    {
      "inputs": [
        {
          "internalType": "address",
          "name": "_platformToken",
          "type": "address"
        }
      ],
      "name": "setPlatformToken",
      "outputs": [],
      "stateMutability": "nonpayable",
      "type": "function"
    },
    {
      "inputs": [
        {
          "internalType": "address",
          "name": "newOwner",
          "type": "address"
        }
      ],
      "name": "transferOwnership",
      "outputs": [],
      "stateMutability": "nonpayable",
      "type": "function"
    }
  ],
  "bytecode": "0x608060405234801561000f575f5ffd5b5060405161154a38038061154a83398101604081905261002e9161014c565b60015f55338061005857604051631e4fbdf760e01b81525f60048201526024015b60405180910390fd5b610061816100e0565b506001600160a01b0383166100a85760405162461bcd60e51b815260206004820152600d60248201526c34b73b30b634b2103a37b5b2b760991b604482015260640161004f565b600280546001600160a01b039485166001600160a01b0319918216179091556003805493909416921691909117909155600455610185565b600180546001600160a01b038381166001600160a01b0319831681179093556040519116919082907f8be0079c531659141344cd1fd0a4f28419497f9722a3daafe3b4186f6b6457e0905f90a35050565b80516001600160a01b0381168114610147575f5ffd5b919050565b5f5f5f6060848603121561015e575f5ffd5b61016784610131565b925061017560208501610131565b9150604084015190509250925092565b6113b8806101925f395ff3fe608060405234801561000f575f5ffd5b5060043610610106575f3560e01c8063b8606eef1161009e578063de74e57b1161006e578063de74e57b14610222578063e74b981b1461029b578063e8d9b52f146102ae578063f23a6e61146102c1578063f2fde38b146102e1575f5ffd5b8063b8606eef146101b8578063bc197c81146101c1578063d1b812cd146101fc578063d96a094a1461020f575f5ffd5b80635280af1d116100d95780635280af1d146101755780636c2c9c7d14610188578063715018a61461019f5780638da5cb5b146101a7575f5ffd5b80630165dd271461010a5780630255a03b1461011f578063305a67a8146101325780634690484014610145575b5f5ffd5b61011d610118366004610f39565b6102f4565b005b61011d61012d366004610f64565b610348565b61011d610140366004610f39565b610372565b600354610158906001600160a01b031681565b6040516001600160a01b0390911681526020015b60405180910390f35b61011d610183366004610f86565b61058f565b61019160055481565b60405190815260200161016c565b61011d610830565b6001546001600160a01b0316610158565b61019160045481565b6101e36101cf36600461103e565b63bc197c8160e01b98975050505050505050565b6040516001600160e01b0319909116815260200161016c565b600254610158906001600160a01b031681565b61011d61021d366004610f39565b610843565b610287610230366004610f39565b600660208190525f9182526040909120805460018201546002830154600384015460048501546005860154968601546007909601546001600160a01b03958616979590941695929460ff9283169491939092169088565b60405161016c989796959493929190611135565b61011d6102a9366004610f64565b610bfa565b61011d6102bc366004611188565b610c24565b6101e36102cf3660046111c0565b63f23a6e6160e01b9695505050505050565b61011d6102ef366004610f64565b610e59565b6102fc610e93565b6127108111156103435760405162461bcd60e51b815260206004820152600d60248201526c0627073206d617820313030303609c1b60448201526064015b60405180910390fd5b600455565b610350610e93565b600280546001600160a01b0319166001600160a01b0392909216919091179055565b61037a610ec0565b5f8181526006602081905260409091209081015460ff166103ca5760405162461bcd60e51b815260206004820152600a6024820152696e6f742061637469766560b01b604482015260640161033a565b80546001600160a01b03163314806103fb5750336103f06001546001600160a01b031690565b6001600160a01b0316145b61043d5760405162461bcd60e51b81526020600482015260136024820152723737ba1039b2b63632b91037b91037bbb732b960691b604482015260640161033a565b60068101805460ff191690555f600382015460ff16600181111561046357610463611101565b036104d8576001810154815460028301546040516323b872dd60e01b81526001600160a01b03938416936323b872dd936104a69330939290911691600401611237565b5f604051808303815f87803b1580156104bd575f5ffd5b505af11580156104cf573d5f5f3e3d5ffd5b5050505061054a565b600181015481546002830154600480850154604051637921219560e11b81526001600160a01b039586169563f242432a9561051c953095919092169391920161125b565b5f604051808303815f87803b158015610533575f5ffd5b505af1158015610545573d5f5f3e3d5ffd5b505050505b80546040516001600160a01b039091169083907ff69c7ea3f71dad86e17ba97a88b7e8f1708c0946bd98c7584e9942f60da8728e905f90a35061058c60015f55565b50565b610597610ec0565b5f81116105d05760405162461bcd60e51b8152602060048201526007602482015266070726963653e360cc1b604482015260640161033a565b6040516331a9108f60e11b81526004810183905233906001600160a01b03851690636352211e90602401602060405180830381865afa158015610615573d5f5f3e3d5ffd5b505050506040513d601f19601f820116820180604052508101906106399190611292565b6001600160a01b03161461067b5760405162461bcd60e51b81526020600482015260096024820152683737ba1037bbb732b960b91b604482015260640161033a565b6040516323b872dd60e01b81526001600160a01b038416906323b872dd906106ab90339030908790600401611237565b5f604051808303815f87803b1580156106c2575f5ffd5b505af11580156106d4573d5f5f3e3d5ffd5b505060058054925090505f6106e8836112c1565b909155505060408051610100810182523381526001600160a01b0385811660208084019182528385018781525f6060860181815260016080880181905260a088018a905260c088018190524260e089015260055483526006909452969020855181549086166001600160a01b031991821617825593518184018054919096169416939093179093559151600282015592516003840180549394939192909160ff191690838181111561079c5761079c611101565b02179055506080820151600482015560a082015160058083019190915560c083015160068301805460ff191691151591909117905560e090920151600790910155546040513391907fb5432236d4716f36165069f80d980c0804f9a1039659280a6e01dc5ef5371d4a9061081a908790879087905f906001906112d9565b60405180910390a361082b60015f55565b505050565b610838610e93565b6108415f610ee8565b565b61084b610ec0565b5f8181526006602081905260409091209081015460ff1661089b5760405162461bcd60e51b815260206004820152600a6024820152696e6f742061637469766560b01b604482015260640161033a565b5f8160050154116108de5760405162461bcd60e51b815260206004820152600d60248201526c696e76616c696420707269636560981b604482015260640161033a565b5f61271060045483600501546108f49190611314565b6108fe9190611331565b90505f8183600501546109119190611350565b60025484546040516323b872dd60e01b81529293506001600160a01b03918216926323b872dd9261094b9233929116908690600401611237565b6020604051808303815f875af1158015610967573d5f5f3e3d5ffd5b505050506040513d601f19601f8201168201806040525081019061098b9190611363565b6109d75760405162461bcd60e51b815260206004820152601860248201527f7061796d656e7420746f2073656c6c6572206661696c65640000000000000000604482015260640161033a565b5f821180156109f057506003546001600160a01b031615155b15610aaf576002546003546040516323b872dd60e01b81526001600160a01b03928316926323b872dd92610a2e923392909116908790600401611237565b6020604051808303815f875af1158015610a4a573d5f5f3e3d5ffd5b505050506040513d601f19601f82011682018060405250810190610a6e9190611363565b610aaf5760405162461bcd60e51b81526020600482015260126024820152711c185e5b595b9d081999594819985a5b195960721b604482015260640161033a565b5f600384015460ff166001811115610ac957610ac9611101565b03610b3957600183015460028401546040516323b872dd60e01b81526001600160a01b03909216916323b872dd91610b079130913391600401611237565b5f604051808303815f87803b158015610b1e575f5ffd5b505af1158015610b30573d5f5f3e3d5ffd5b50505050610ba6565b60018301546002840154600480860154604051637921219560e11b81526001600160a01b039094169363f242432a93610b78933093339390910161125b565b5f604051808303815f87803b158015610b8f575f5ffd5b505af1158015610ba1573d5f5f3e3d5ffd5b505050505b60068301805460ff191690556005830154604051908152339085907fa574c741071bb18f51fa88c17aeefec514bebf670ca22a3736fba6504ecbb7639060200160405180910390a350505061058c60015f55565b610c02610e93565b600380546001600160a01b0319166001600160a01b0392909216919091179055565b610c2c610ec0565b5f8111610c655760405162461bcd60e51b8152602060048201526007602482015266070726963653e360cc1b604482015260640161033a565b5f8211610c9f5760405162461bcd60e51b81526020600482015260086024820152670616d6f756e743e360c41b604482015260640161033a565b604051637921219560e11b81526001600160a01b0385169063f242432a90610cd190339030908890889060040161125b565b5f604051808303815f87803b158015610ce8575f5ffd5b505af1158015610cfa573d5f5f3e3d5ffd5b505060058054925090505f610d0e836112c1565b909155505060408051610100810182523381526001600160a01b038681166020808401918252838501888152600160608601818152608087018a905260a0870189905260c087018290524260e08801526005545f908152600690945296909220855181549086166001600160a01b031991821617825593518184018054919096169416939093179093559151600282015592516003840180549394939192909160ff1916908381811115610dc457610dc4611101565b02179055506080820151600482015560a082015160058083019190915560c083015160068301805460ff191691151591909117905560e090920151600790910155546040513391907fb5432236d4716f36165069f80d980c0804f9a1039659280a6e01dc5ef5371d4a90610e42908890889087906001908a906112d9565b60405180910390a3610e5360015f55565b50505050565b610e61610e93565b6001600160a01b038116610e8a57604051631e4fbdf760e01b81525f600482015260240161033a565b61058c81610ee8565b6001546001600160a01b031633146108415760405163118cdaa760e01b815233600482015260240161033a565b60025f5403610ee257604051633ee5aeb560e01b815260040160405180910390fd5b60025f55565b600180546001600160a01b038381166001600160a01b0319831681179093556040519116919082907f8be0079c531659141344cd1fd0a4f28419497f9722a3daafe3b4186f6b6457e0905f90a35050565b5f60208284031215610f49575f5ffd5b5035919050565b6001600160a01b038116811461058c575f5ffd5b5f60208284031215610f74575f5ffd5b8135610f7f81610f50565b9392505050565b5f5f5f60608486031215610f98575f5ffd5b8335610fa381610f50565b95602085013595506040909401359392505050565b5f5f83601f840112610fc8575f5ffd5b50813567ffffffffffffffff811115610fdf575f5ffd5b6020830191508360208260051b8501011115610ff9575f5ffd5b9250929050565b5f5f83601f840112611010575f5ffd5b50813567ffffffffffffffff811115611027575f5ffd5b602083019150836020828501011115610ff9575f5ffd5b5f5f5f5f5f5f5f5f60a0898b031215611055575f5ffd5b883561106081610f50565b9750602089013561107081610f50565b9650604089013567ffffffffffffffff81111561108b575f5ffd5b6110978b828c01610fb8565b909750955050606089013567ffffffffffffffff8111156110b6575f5ffd5b6110c28b828c01610fb8565b909550935050608089013567ffffffffffffffff8111156110e1575f5ffd5b6110ed8b828c01611000565b999c989b5096995094979396929594505050565b634e487b7160e01b5f52602160045260245ffd5b6002811061113157634e487b7160e01b5f52602160045260245ffd5b9052565b6001600160a01b038981168252881660208201526040810187905261010081016111626060830188611115565b608082019590955260a081019390935290151560c083015260e090910152949350505050565b5f5f5f5f6080858703121561119b575f5ffd5b84356111a681610f50565b966020860135965060408601359560600135945092505050565b5f5f5f5f5f5f60a087890312156111d5575f5ffd5b86356111e081610f50565b955060208701356111f081610f50565b94506040870135935060608701359250608087013567ffffffffffffffff811115611219575f5ffd5b61122589828a01611000565b979a9699509497509295939492505050565b6001600160a01b039384168152919092166020820152604081019190915260600190565b6001600160a01b0394851681529290931660208301526040820152606081019190915260a0608082018190525f9082015260c00190565b5f602082840312156112a2575f5ffd5b8151610f7f81610f50565b634e487b7160e01b5f52601160045260245ffd5b5f600182016112d2576112d26112ad565b5060010190565b6001600160a01b0386168152602081018590526040810184905260a081016113046060830185611115565b8260808301529695505050505050565b808202811582820484141761132b5761132b6112ad565b92915050565b5f8261134b57634e487b7160e01b5f52601260045260245ffd5b500490565b8181038181111561132b5761132b6112ad565b5f60208284031215611373575f5ffd5b81518015158114610f7f575f5ffdfea2646970667358221220de321d793916cefbf1cf21afd6508ec1b40e6c15ab32760c4ae28994d5dff17364736f6c634300081c0033",
  "linkReferences": {},
  "deployedLinkReferences": {},
  "immutableReferences": {},
  "inputSourceName": "project/contracts/Marketplace.sol",
  "buildInfoId": "solc-0_8_28-18b834aca0e05d915f99deeb5947f106fc587363"
}